:100000000C9435000C945D000C945D000C945D0024
:100010000C945D000C945D000C944C050C945D00F8
:100020000C945D000C945D000C945D000C945D00DC
:100030000C945D000C945D000C945D000C945D00CC
:100040000C9428030C945D000C94D3010C940B02C7
:100050000C945D000C945D000C945D000C945D00AC
:100060000C945D000C945D003B0211241FBECFEF89
:10007000D8E0DEBFCDBF11E0A0E0B1E0E0E2FBE2FE
:1000800002C005900D92AC33B107D9F722E0ACE382
:10009000B1E001C01D92A237B207E1F710E0C5E35D
:1000A000D0E004C02197FE010E943F14C433D10761
:1000B000C9F70E9419030C948E150C940000FC01E2
:1000C000218D30E0205C3F4F828DA901481B5109F2
:1000D000CA018F7399270895FC01918D828D98171D
:1000E00031F0828DE80FF11D858D90E008958FEF3E
:1000F0009FEF0895FC01918D828D981761F0A28D7C
:10010000AE0FBF2FB11D5D968C91928D9F5F9F7337
:10011000928F90E008958FEF9FEF0895FC01938DEB
:10012000848D981720F4891B990B019708952FE36C
:1001300030E0291B3109820F932F911D089581E32F
:1001400092E0892B41F080E090E0892B21F00E9421
:100150003102811101C008950E940000FCCFFC0112
:10016000A48DA80FB92FB11DA35ABF4F2C91848D18
:1001700090E001968F739078848FA689B7892C932D
:10018000A089B1898C91837080648C93938D848DC8
:10019000981308950288F389E02D80818F7D8083F4
:1001A000F8CFCF93DF93EC01888D811104C00DC08F
:1001B0000FB607FE0DC0EA89FB89808185FDF8CF67
:1001C000A889B9898C9186FFF3CFDF91CF910895EB
:1001D000808185FFF0CFE889F989808185FFEBCFA9
:1001E000CE010E94AF00E7CF0F931F93CF93DF9311
:1001F000EC0181E0888F9B8D8C8D9817B1F0062FD4
:100200008B8D90E001968F739078182F8C8D8113D1
:100210001EC00FB607FCFACFE889F989808185FFF7
:10022000F5CFCE010E94AF00F1CFE889F989808136
:1002300085FFE5CF9FB7F894EE89FF896083E88951
:10024000F98980818370806480839FBF10C0EB8DAB
:10025000EC0FFD2FF11DE35AFF4F00839FB7F89479
:100260001B8FEA89FB898081806280839FBF81E048
:1002700090E0DF91CF911F910F910895CF92DF927F
:10028000EF92FF921F93CF93DF93EC016A017B0102
:10029000122F60E079E08DE390E0A70196010E94C3
:1002A0001D1421503109410951095695479537953B
:1002B0002795E889F98982E08083C11481EED80608
:1002C000E104F10421F0211580E1380798F0E88974
:1002D000F989108260E874E88EE190E0A701960148
:1002E0000E941D1421503109410951095695479525
:1002F00037952795EC85FD853083EE85FF85208336
:10030000188EEC89FD891083EA89FB8980818061E0
:100310008083EA89FB89808188608083EA89FB8900
:10032000808180688083EA89FB8980818F7D8083DA
:10033000DF91CF911F91FF90EF90DF90CF900895C4
:10034000019709F008956F3F7F4FE1F7ECE3F1E08B
:100350001382128288EE93E0A0E0B0E0848395835C
:10036000A683B7838BE091E09183808385EC90E056
:100370009587848784EC90E09787868780EC90E06F
:10038000918B808B81EC90E0938B828B82EC90E060
:10039000958B848B86EC90E0978B868B118E128EDA
:1003A000138E148ECFCF1F920F920FB60F9211247F
:1003B0002F938F939F93AF93BF93EF93FF93E0910E
:1003C0004C01F0914D01808182FD14C0ECE3F1E01D
:1003D000A689B7892C91818D8F5F8F73928D891734
:1003E00071F0DF01E18DF0E0E45CFE4F258F59965E
:1003F0008C9305C0E0915201F09153018081FF91EF
:10040000EF91BF91AF919F918F912F910F900FBE60
:100410000F901F9018951F920F920FB60F921124F4
:100420002F933F934F935F936F937F938F939F93FC
:10043000AF93BF93EF93FF938CE391E00E94AF00E3
:10044000FF91EF91BF91AF919F918F917F916F91AC
:100450005F914F913F912F910F900FBE0F901F9082
:1004600018958CE391E00E945F0021E0892B09F44C
:1004700020E0822F08956FEF7FEF81E090E00E94EF
:10048000A0010895CF92DF92EF92FF920F931F93F6
:10049000CF93DF938C01DB01D0E0C0E07A0181E0F3
:1004A000E81AF108452BA1F0F80180819181FC0147
:1004B000208131816D01FFEFCF1ADF0A6C91C801F5
:1004C000F9010995892B21F02196A701D601E6CFE4
:1004D000CE01DF91CF911F910F91FF90EF90DF90B0
:1004E000CF9008956115710581F0FB010190002006
:1004F000E9F73197AF01461B570BDC01ED91FC91F9
:100500000280F381E02D0995089590E080E0089540
:10051000DC01ED91FC910280F381E02D42E050E09E
:1005200069E171E009950895DF92EF92FF920F93D0
:100530001F93CF93DF93CDB7DEB7A1970FB6F89493
:10054000DEBF0FBECDBF7C01CB01BA01D22E19A2F6
:1005500021E02D1520F48E010F5D1F4F0EC00F2ED0
:10056000FAE0DF2EF02DF7CFE95CD801EE938D0194
:10057000611571058105910579F02D2D30E050E070
:1005800040E00E941D14E62F622F732F842F952FB9
:10059000EA3054F7E05DE9CF1097F9F0FD010190E2
:1005A0000020E9F73197AF014A1B5B0BD701ED91B2
:1005B000FC910280F381E02DB801C7010995A19655
:1005C0000FB6F894DEBF0FBECDBFDF91CF911F9164
:1005D0000F91FF90EF90DF90089590E080E0EFCFD3
:1005E0002115310549F4DC01ED91FC910190F08178
:1005F000E02D642F099508950E94940208959A01B0
:10060000462F50E070E060E00E94F00208950F93E2
:100610001F93CF93DF93EC010E94FF028C01CE0168
:100620000E948802800F911FDF91CF911F910F913F
:1006300008950E9483030E9435130E94B4130E9400
:1006400008148FE990E0892BD1F30E949F00F7CF27
:100650001F920F920FB60F9211240F931F932F9397
:100660003F934F935F936F937F938F939F93AF933A
:10067000BF930091DA011091DB012091DC013091F0
:10068000DD019091D901B901A8014F5F5F4F6F4F14
:100690007F4F83E0890F8D3740F086E8890FB901DD
:1006A000A8014E5F5F4F6F4F7F4F8093D9014093FA
:1006B000DA015093DB016093DC017093DD018091DE
:1006C000DE019091DF01A091E001B091E10101967E
:1006D000A11DB11D8093DE019093DF01A093E00185
:1006E000B093E101BF91AF919F918F917F916F91F5
:1006F0005F914F913F912F911F910F910F900FBEDE
:100700000F901F901895789484B5826084BD84B54D
:10071000816084BD85B5826085BD85B5816085BDFC
:10072000EEE6F0E0808181608083E1E8F0E0108215
:10073000808182608083808181608083E0E8F0E056
:10074000808181608083E1EBF0E080818460808340
:10075000E0EBF0E0808181608083EAE7F0E0808177
:1007600084608083808182608083808181608083D7
:100770008081806880831092C1000895CF93DF93B9
:10078000EC010E94A00BCE010E945914EC010E94C2
:10079000CF0C209721F0CE01DF91CF9108950E94D8
:1007A0005A13F9CFCF93DF93009741F0EC010E94E9
:1007B000A00BCE010E94F5140E94CF0CDF91CF91C7
:1007C0000895FC010396928381832FEF3FEF3483DA
:1007D0002383968385839087878310820895FC0105
:1007E000118610860895CF93DF93EB0148815981DC
:1007F0004F3F540719F0DC01139605C0FC01A78197
:10080000B0850AC0DF011296ED91FC91139720810B
:10081000318142175307B0F71296ED91FC9113976F
:10082000FB83EA83D583C483BD83AC831396DC93B7
:10083000CE93129799878887FC0120812F5F2083B0
:10084000DF91CF910895CF93DF93FC01A085B1850F
:10085000C281D381848195819D838C83C481D5811C
:10086000828193819B838A8311968D919C911297AB
:100870008E179F0741F0118610868C9181508C93C2
:10088000DF91CF9108958481958112969C938E93E8
:100890001197F1CFFC0160833197708331971082FB
:1008A000319720E8208331971082779740833197E2
:1008B0005083839708950F920FB6F8940F921F926A
:1008C00011242F923F924F925F926F927F928F925C
:1008D0009F92AF92BF92CF92DF92EF92FF920F93CF
:1008E0001F932F933F934F935F936F937F938F93B8
:1008F0009F93AF93BF93CF93DF93EF93FF93A09119
:100900004702B09148020DB60D920EB60D920E94AC
:10091000C40DA0914702B0914802CD91CDBFDD91A9
:10092000DEBFFF91EF91DF91CF91BF91AF919F918A
:100930008F917F916F915F914F913F912F911F9177
:100940000F91FF90EF90DF90CF90BF90AF909F906E
:100950008F907F906F905F904F903F902F901F905F
:100960000F900FBE0F9008950F920FB6F8940F924C
:100970001F9211242F923F924F925F926F927F921B
:100980008F929F92AF92BF92CF92DF92EF92FF929F
:100990000F931F932F933F934F935F936F937F9387
:1009A0008F939F93AF93BF93CF93DF93EF93FF9377
:1009B000A0914702B09148020DB60D920EB60D926D
:1009C00013BE0E94B00B81110E94C40DA09147027A
:1009D000B0914802CD91CDBFDD91DEBFFF91EF9187
:1009E000DF91CF91BF91AF919F918F917F916F9147
:1009F0005F914F913F912F911F910F91FF90EF9039
:100A0000DF90CF90BF90AF909F908F907F906F902E
:100A10005F904F903F902F901F900F900FBE0F90C0
:100A20000895A89588E190EC0FB6F894A895809366
:100A300060000FBE9093600008950E941105A09180
:100A40004702B0914802CD91CDBFDD91DEBFFF914D
:100A5000EF91DF91CF91BF91AF919F918F917F9156
:100A60006F915F914F913F912F911F910F91FF9047
:100A7000EF90DF90CF90BF90AF909F908F907F903E
:100A80006F905F904F903F902F901F900F900FBEF0
:100A90000F90089581E008950E94B4041895DC0138
:100AA00051962C915197222339F05696ED91FC9155
:100AB000908184E0891B089580E008950FB6F89432
:100AC0000F92FC01828D882321F080E00F900FBEF1
:100AD000089581E0FBCF0FB6F8940F92FC01228DB0
:100AE000838D281721F080E00F900FBE089581E0DC
:100AF000FBCF0F931F93CF93DF93EC01042F1A8D3D
:100B00004C8D411113C088819981892B41F080E07F
:100B10001F5F1A8FDF91CF911F910F9108958C81E4
:100B20009D810E9439101D821C82F2CF011118C0D4
:100B300050E08A819B810E947E158C8D2A813B81A9
:100B4000820F932F911D9B838A832C813D81821775
:100B5000930750F1888199819B838A8380E0D8CF65
:100B600050E08E819F810E947E158C8D90E0919542
:100B7000819591092E813F81280F391F3F832E8354
:100B8000488159812417350730F42C813D81820F2B
:100B9000931F9F838E83023011F080E0B9CF112321
:100BA00029F0115080E0B4CF80E0B2CF80E0B0CF28
:100BB000FC01448D4423A9F050E026813781240FA5
:100BC000351F37832683848195812817390720F0C4
:100BD0008081918197838683CB01668177810E9492
:100BE0007E1508951F93CF93DF93EC010FB6F89411
:100BF0000F921E8D03C00E94A30F1150111654F4C2
:100C00008989882339F0CE0141960E949C0E882361
:100C1000A1F3F1CF8FEF8E8F0F900FBE0FB6F89428
:100C20000F921D8D03C00E94A30F1150111654F492
:100C30008885882339F0CE0108960E949C0E88236F
:100C4000A1F3F1CF8FEF8D8F0F900FBEDF91CF917A
:100C50001F910895CF93DF93009709F447C0FC01DB
:100C6000238D222309F444C0EC010FB6F8940F92AF
:100C700020813181838D90E0448D50E0849FF0018C
:100C8000859FF00D949FF00D1124E20FF31FFD835B
:100C9000EC831A8E3B832A830197849FF001859F02
:100CA000F00D949FF00D11242E0F3F1F3F832E83D4
:100CB0008FEF8D8F8E8F611110C08885811104C0D8
:100CC0000F900FBE81E015C0CE0108960E949C0EC9
:100CD0008823B1F30E945B04F3CFCE0108960E94F3
:100CE000E103CE0141960E94E103EACF80E001C01A
:100CF00080E0DF91CF9108950F931F93F801662351
:100D000059F051834083838F648F61E0CF010E944B
:100D10002A061F910F91089511830083F4CFDF926B
:100D2000EF92FF920F931F93CF93DF93882319F1D4
:100D3000869F90011124213E9FEF3907F8F4D42EAD
:100D4000D62FC82FC9014F960E94BE037C01009781
:100D500049F08C012D2DAC01415E5F4F6D2F8C2F22
:100D60000E947C06C701DF91CF911F910F91FF90E8
:100D7000EF90DF900895F12CE12CF4CFF12CE12CD1
:100D8000F1CFCF92DF92EF92FF920F931F93CF9309
:100D9000DF9300D000D01F92CDB7DEB78C017B016E
:100DA0005D834C83C22ED12C3CC04C2DB701C801B1
:100DB0000E947905F8019189911113C081111AC01F
:100DC0000F900FBE81E00F900F900F900F900F903B
:100DD000DF91CF911F910F91FF90EF90DF90CF9017
:100DE0000895C80141960E949C0E882349F30E94F1
:100DF0005B04E6CF0E945B04E3CF0F900FBE80E060
:100E0000E2CFCE0101960E945B0FDD24D3941CC07B
:100E1000158E25C0168E27C0C8010E94F2050E94BB
:100E2000CF0C0FB6F8940F92F801928D838D98171E
:100E300008F4BBCFF2E0CF1609F4B7CF8C819D81C7
:100E4000892BD9F2DD20E9F20F900FBE0E94A00B92
:100E50000FB6F8940F92F801858D8F3FC9F2F80113
:100E6000868D8F3FB9F20F900FBEBE016C5F7F4F32
:100E7000CE0101960E94660F811116C0C8010E9422
:100E80006B05882309F4C8CF6C817D81C801089661
:100E90000E94410EC8010E94F2050E94CF0C8111F0
:100EA000C0CF0E945B04BDCFC8010E94F2050E9422
:100EB000CF0C80E088CFCF92DF92EF92FF920F931A
:100EC0001F93CF93DF9300D000D01F92CDB7DEB732
:100ED0008C016B015D834C83E12C43C0B601C801DA
:100EE0000E94D805FA94F801F28E8085811111C014
:100EF0000F900FBE81E00F900F900F900F900F900A
:100F0000DF91CF911F910F91FF90EF90DF90CF90E5
:100F10000895C80108960E949C0E882349F30E94F8
:100F20005B04E6CF0F900FBE80E0E5CFCE010196C7
:100F30000E945B0FEE24E39421C0158E2AC0168E0A
:100F40002CC0C8010E94F2050E94CF0C0AC0C80143
:100F50000E94F2050E94CF0CC8010E945E0581111B
:100F60003DC00FB6F8940F92F801F28CF110B6CF95
:100F70008C819D81892BB1F2EE20C1F20F900FBEC2
:100F80000E94A00B0FB6F8940F92F801858D8F3F49
:100F9000A1F2F801868D8F3F91F20F900FBEBE0136
:100FA0006C5F7F4FCE0101960E94660F8111CFCFFB
:100FB000C8010E945E05882309F4C3CF6C817D813E
:100FC000C80141960E94410EC8010E94F2050E948C
:100FD000CF0C8111C6CF0E945B04C3CF80E08BCFC2
:100FE000EF92FF920F931F93CF93DF9300D000D027
:100FF0001F92CDB7DEB78C017D836C83E12CF12C81
:1010000054C08150828F80819181892BA9F0F80191
:101010008085811117C00F900FBEEE24E3948E2DB2
:101020000F900F900F900F900F90DF91CF911F9125
:101030000F91FF90EF9008950E940C11F801958395
:101040008483E5CFC80108960E949C0E882319F37B
:101050000E945B04E0CF0F900FBEE12CE0CFCE01E9
:1010600001960E945B0FFF24F3942EC0158E38C0AA
:10107000168E3BC00FB6F8940F92848195810E9422
:10108000A70FE82E0F900FBE47C0C8010E94F205BF
:101090000E94CF0C0AC0C8010E94F2050E94CF0C2A
:1010A000C8010E945E05811147C00FB6F8940F92E7
:1010B000F801828D8111A5CF8C819D81892B09F446
:1010C000CACFFF2009F4CBCF0F900FBE0E94A00B18
:1010D0000FB6F8940F92F801858D8F3F09F4C6CFB3
:1010E000F801868D8F3F09F4C3CF0F900FBEBE016C
:1010F0006C5F7F4FCE0101960E94660F8111CBCFAE
:10110000C8010E945E05882309F4BFCFF8018081E1
:101110009181892B09F4AECF6C817D81C801419604
:101120000E94410EC8010E94F2050E94CF0C81115D
:10113000BCCF0E945B04B9CFEE2009F470CF0FB68C
:10114000F8940F92C8010E944F05682FF80184811E
:1011500095810E949B100F900FBEE12C60CFCF9322
:10116000DF93EC010FB6F8940F928D8D8F3F71F0E5
:101170008E8D8F3F69F00F900FBE8A8D882351F0BE
:10118000CE010E94F205DF91CF9108951D8EF0CF20
:101190001E8EF1CFCE0141960E94530EF1CFE09109
:1011A0000F02F09110028081882371F0E0910F020C
:1011B000F09110020580F681E02D8081918190935D
:1011C000E6018093E50108958FEF9FEF9093E6018C
:1011D0008093E5010895CF93DF93EC018F89988D7B
:1011E0000E94D203CE010E94D203DF91CF910895D5
:1011F0004F925F926F927F928F929F92AF92BF9227
:10120000CF92DF92EF92FF920F93CF93DF932C0157
:101210005B014A013901E60165EA70E08F89988D2A
:101220000E9487158F89988D21E0821A9108880E77
:10123000991EA114B104A1F020E0203180F4822F86
:1012400090E0F501E80FF91F30818C0F9D1FDC0144
:1012500059963C938081882311F02F5FEECF18A61A
:10126000043008F003E00E8B09A7CE0102960E941D
:10127000EF03CE010C960E94EF03D987C88784E064
:1012800090E0801B91099D878C87DB8BCA8BA30123
:10129000B201C4010E944A0499838883E114F104D5
:1012A00019F0F701D183C083DF91CF910F91FF90A7
:1012B000EF90DF90CF90BF90AF909F908F907F90F6
:1012C0006F905F904F9008952F923F924F925F9250
:1012D0006F927F928F929F92AF92BF92CF92DF9246
:1012E000EF92FF920F93CF93DF934C011B012A01E2
:1012F0003901CA010E94BE036C01892B81F180E390
:1013000090E00E94BE03EC01892B29F180E3FE01ED
:1013100011928A95E9F7D88ECF8A209749F0B12C9F
:10132000A12C6E019301A201B101C4010E94F80831
:10133000CE01DF91CF910F91FF90EF90DF90CF9092
:10134000BF90AF909F908F907F906F905F904F90E5
:101350003F902F900895C6010E94D203DECFD0E0C7
:10136000C0E0E6CFCF93C0E010C02C2F30E0C90121
:10137000880F991F880F991F880F991F820F931F3D
:101380008D5D9D4F0E94E103CF5FC43070F38AE111
:1013900092E00E94E10381E192E00E94E10384E097
:1013A00092E00E94E1038BEF91E00E94E10381EF64
:1013B00091E00E94E1038AE192E090931002809311
:1013C0000F0281E192E090930E0280930D02CF9183
:1013D0000895CF93DF93EC010FB6F8940F928091AC
:1013E000F0018F5F8093F001809147029091480255
:1013F000892B89F08091EC01811116C0E0914702A0
:10140000F091480296898E89891770F0D09348022E
:10141000C093470209C0D0934802C093470280910D
:10142000F001813009F44FC08091E7018F5F809314
:10143000E7018E899091ED01981710F48093ED01EA
:1014400090E0FC01EE0FFF1FEE0FFF1FEE0FFF1FDE
:10145000E80FF91FED5DFD4F0180F281E02DFD8366
:10146000EC83848195819F838E83A481B581CE0195
:10147000029613969C938E93129795838483EE899C
:101480008E2F90E0FC01EE0FFF1FEE0FFF1FEE0FFF
:10149000FF1FE80FF91FED5DFD4FFB87EA87808195
:1014A0008F5F80830F900FBE8091EC01882341F005
:1014B000E0914702F091480296898E89981730F0A2
:1014C000DF91CF9108950E94B209AECF0E945B04D4
:1014D000F7CFCF93DF931CC00FB6F8940F92E09133
:1014E0000002F0910102C681D781CE0102960E94CE
:1014F00023048091F00181508093F0018091FA01E2
:1015000081508093FA010F900FBECE010E94EB082C
:101510008091FA018111E0CFDF91CF910895BF92C0
:10152000CF92DF92EF92FF920F931F93CF93DF93AF
:10153000EC01B62E0091EE011091EF01E0900F0248
:10154000F0901002C0900D02D0900E0280914702E0
:101550009091480202960E942304CF3FDC0711F1CC
:10156000C00FD11FE0914702F0914802D383C2839C
:10157000C017D10708F44CC060914702709148022F
:101580006E5F7F4FC7010E94F3038091E501909148
:10159000E601C817D90708F044C0D093E601C0930C
:1015A000E5013FC0BB20E1F2E1EFF1E0A181B281B2
:1015B000C0914702D0914802BD83AC83C0914702DD
:1015C000D091480214968D919C9115979F838E839C
:1015D00080914702909148021496CD91DC91159725
:1015E00002969B838A8380914702909148020296DB
:1015F00015969C938E931497A0914702B091480240
:101600001B96FC93EE931A9780818F5F808309C0AD
:1016100060914702709148026E5F7F4FC6010E9441
:10162000F303DF91CF911F910F91FF90EF90DF9027
:10163000CF90BF90089502C00E9446130E94690A8D
:10164000809123028230C0F30E945B04F5CFEF92B9
:10165000FF920F930E946409009739F00E94E909F4
:1016600081E00F91FF90EF9008958FEFFACFEF9206
:10167000FF920F931F93CF93DF93CDB7DEB76097A1
:101680000FB6F894DEBF0FBECDBF80E080319CF472
:10169000E82F082E000CFF0BDF01A45EBE4F9C91CB
:1016A00021E030E02C0F3D1FE20FF31F90839923C0
:1016B00011F08F5FEBCF10E081E011166CF46096B3
:1016C0000FB6F894DEBF0FBECDBFDF91CF911F9153
:1016D0000F91FF90EF900895E12EEE0CFF08C701E7
:1016E0008D519E4F7C0100E030E020E040EC50E066
:1016F000BE016F5F7F4F8BE19BE00E94270B882329
:10170000F1F21F5FDACF0E94370B813029F0813070
:1017100031F08091060108950E941313F8CFF894D8
:101720008FEF9FEF9093E6018093E50181E0809336
:10173000EC011092EF011092EE010E941D05E9CF1D
:101740008091E2018F5F8093E20108950FB6F894D3
:101750000F928091EE019091EF010F900FBE0895CE
:101760000F931F93CF93DF938091E201811108C102
:10177000C091EE01D091EF018E010F5F1F4F1093CA
:10178000EF010093EE010115110529F18091E501AA
:101790009091E60108171907B0F580E0E091470243
:1017A000F0914802E6892E2F30E0F901EE0FFF1F7D
:1017B000EE0FFF1FEE0FFF1FE20FF31FED5DFD4F5A
:1017C0009081923008F081E09091E901992309F429
:1017D000E1C081E0DFC080910F0290911002209162
:1017E0000D0230910E023093100220930F0290935D
:1017F0000E0280930D028091E8018F5F8093E801D3
:101800000E94CF08C3CF80E05EC02FEF3FEF309340
:10181000E6012093E501C2CF3093E6012093E50174
:10182000BDCF2681378112963C932E9311977EC0AF
:10183000158A148A9C9191509C9326899091ED0170
:10184000921710F42093ED0130E0D901AA0FBB1FCD
:10185000AA0FBB1FAA0FBB1FA20FB31FAD5DBD4FC9
:1018600011960D90BC91A02DB583A48314962D9153
:101870003C9115973783268314962D913C911597AB
:10188000E9015B834A8315965C934E931497A6896E
:101890002A2F30E0D901AA0FBB1FAA0FBB1FAA0F26
:1018A000BB1FA20FB31FAD5DBD4FB387A2879C9135
:1018B0009F5F9C932689E0914702F09148029689A8
:1018C000921708F481E0E0910F02F09110029081EC
:1018D000992309F49ACFE0910F02F091100205804C
:1018E000F681E02D0680F781E02D228133810217F9
:1018F000130708F491CFA285B385248135814681F1
:101900005781E9015D834C8326813781448155816C
:10191000E9015B834A8311962D913C911297AF01A7
:101920004E5F5F4F2417350709F47BCF138612866D
:101930009C9191509C93A489B589109709F47DCF0F
:101940002685378560897189E9017D836C832089CB
:10195000318966857785E9017B836A8311966D916C
:101960007C9112979F01245F3F4F6217730709F024
:101970005FCF2089318912963C932E93119758CFCF
:101980008091EA019091EB0101969093EB01809395
:10199000EA0180E0DF91CF911F910F910895CF93DD
:1019A000DF930FB6F8940F928091E20181508093FB
:1019B000E2018091E2018111CDC08091F001882384
:1019C00009F4C9C0F0E0E0E080910402882309F442
:1019D0009AC0E0910902F0910A020680F781E02D99
:1019E000A489B589C685D785808991899D838C8393
:1019F000C089D189868597859B838A8311962D918D
:101A00003C911297CF010C962817390709F46DC045
:101A1000158A148A8C9181508C93A285B385C481D8
:101A2000D581868197819D838C83C681D78184816E
:101A300095819B838A8311968D919C9112979F012A
:101A40002E5F3F4F8217930709F456C01386128604
:101A50008C9181508C9386899091ED01981710F4A8
:101A60008093ED0190E0DC01AA0FBB1FAA0FBB1F02
:101A7000AA0FBB1FA80FB91FAD5DBD4F11960D90EA
:101A8000BC91A02DB583A48314968D919C9115973C
:101A9000978386831496CD91DC9115973B832A8397
:101AA00015963C932E931497A6898A2F90E0DC011B
:101AB000AA0FBB1FAA0FBB1FAA0FBB1FA80FB91FDE
:101AC000AD5DBD4FB387A2878C918F5F8C93968954
:101AD000A0914702B091480256968C91891708F060
:101AE00073CF81E08093E9016FCF8089918912964D
:101AF0009C938E9311978CCF8681978112969C939D
:101B00008E931197A3CFEF2B11F00E94CF08C091B5
:101B1000EA01D091EB01209741F48091E901811114
:101B200011C080E018C0219741F00E94B00B8823BB
:101B3000D1F381E08093E901F6CF1092EB0110928E
:101B4000EA01EBCF80914702909148020E945B042A
:101B500081E001C080E00F900FBEDF91CF9108952A
:101B6000CF93DF93EC01892B51F00E94A00B60E032
:101B7000CE010E948F0A0E94CF0C811102C00E94E8
:101B80005B04DF91CF9108958091E201811114C02F
:101B90001092E901E0914702F091480220813181E1
:101BA000E0914702F09148028789908D8217930750
:101BB00038F42091ED0112C081E08093E90108958D
:101BC0006091470270914802675E7F4F80914702A3
:101BD000909148020E946813ECCF2150822F90E030
:101BE000FC01EE0FFF1FEE0FFF1FEE0FFF1FE80FB0
:101BF000F91FED5DFD4F3081332379F3AC01440FC4
:101C0000551F440F551F440F551F480F591FFA0108
:101C1000ED5DFD4FA181B28112966D917C91728331
:101C200061834A5D5D4F64177507D9F0FC01EE0FC3
:101C3000FF1FEE0FFF1FEE0FFF1FE80FF91FED5DF7
:101C4000FD4F0180F281E02D8681978190934802BB
:101C5000809347022093ED018091470290914802C2
:101C60000895FC01EE0FFF1FEE0FFF1FEE0FFF1F89
:101C7000E80FF91FED5DFD4F458156815283418389
:101C8000D5CFCF93DF93EB0160914702709148026B
:101C9000645F7F4F0E94F30361E0CE010E948F0AD0
:101CA000DF91CF9108950F931F93CF93DF93FC01A2
:101CB0008B01A181B2818091470290914802EC0191
:101CC000BF87AE87809147029091480214962D916C
:101CD0003C911597EC01398B288B2091470230916C
:101CE000480214968D919C911597245F3F4FEC010B
:101CF0003B832A832091470230914802245F3F4F63
:101D000015963C932E931497A0914702B0914802E8
:101D10005596FC93EE93549790819F5F9083442354
:101D200011F00FEF1FEF642FC8010E948F0ADF919F
:101D3000CF911F910F910895CF93DF93DC011596FA
:101D4000ED91FC910680F781E02DA489B589C685C7
:101D5000D785808991899D838C83C089D189868527
:101D600097859B838A8311968D919C9112979F01F1
:101D7000245F3F4F8217930709F471C0158A148AB4
:101D80008C9181508C938091E201811176C0A28563
:101D9000B385C481D581868197819D838C83C681DB
:101DA000D781848195819B838A8311968D919C91A3
:101DB00012979F012E5F3F4F8217930709F456C079
:101DC000138612868C9181508C9386899091ED01B7
:101DD000981710F48093ED0190E0DC01AA0FBB1F6F
:101DE000AA0FBB1FAA0FBB1FA80FB91FAD5DBD4F28
:101DF00011960D90BC91A02DB583A48314968D915E
:101E00009C911597978386831496CD91DC911597B5
:101E10003B832A8315963C932E931497A6898A2F89
:101E200090E0DC01AA0FBB1FAA0FBB1FAA0FBB1FAC
:101E3000A80FB91FAD5DBD4FB387A2878C918F5F8F
:101E40008C939689E0914702F09148028689891720
:101E500080F581E08093E901DF91CF910895808939
:101E6000918912969C938E93119788CF8681978142
:101E700012969C938E931197A3CF44E052E0DA011F
:101E80001196CD91DC91D787C6878C819D81918BEE
:101E9000808B8C819D81DC0113963C932E9312974D
:101EA0003D832C83558B448BDA018C918F5F8C930F
:101EB000C8CF80E0D1CF2091E801FC0120832091A0
:101EC000EE013091EF013283218308951F93CF9368
:101ED000DF930FB6F8940F924091EE015091EF010D
:101EE000DC011196ED91FC91DA01AE1BBF0BEB0109
:101EF000288139812F3F320721F1EC011881C091EF
:101F0000E8011C1719F04E175F0768F4A217B30712
:101F100078F0EB011982188281E00F900FBEDF91FB
:101F2000CF911F910895FB011182108281E0F5CFBE
:101F30002A1B3B0BDB012D933C930E945B0F80E03F
:101F4000ECCF80E0EACF81E08093E90108950F9320
:101F50001F93CF93DF93EC01892B09F488C08E89FE
:101F6000A0914702B091480256969C91891708F0BB
:101F700072C02C853D85332364F0A0914702B09157
:101F8000480256969C9124E030E0291B31093D8798
:101F90002C874A855B8590E09C01220F331F220F1E
:101FA000331F220F331F820F931F8D5D9D4F4817E4
:101FB000590769F0A0914702B091480256968C915A
:101FC0008E8B81E0DF91CF911F910F9108958E014B
:101FD0000E5F1F4FC8010E942304E0914702F09159
:101FE000480286898E8B9091ED01981710F48093AA
:101FF000ED0190E0FC01EE0FFF1FEE0FFF1FEE0F53
:10200000FF1FE80FF91FED5DFD4F0180F281E02D0C
:10201000FD83EC83848195819F838E83A481B58128
:1020200013961C930E93129715830483EE898E2FBB
:1020300090E0FC01EE0FFF1FEE0FFF1FEE0FFF1FE2
:10204000E80FF91FED5DFD4FFB87EA8780818F5F09
:10205000808381E0B7CF99A5E0914702F0914802D3
:102060008689981710F481E0ADCF80E0ABCF80E097
:10207000A9CF0F931F93CF93DF93EC01892B09F422
:1020800056C08AA581508AA72E8999A5291709F4D7
:1020900050C0882331F080E0DF91CF911F910F91E4
:1020A00008958E010E5F1F4FC8010E94230489A569
:1020B0008E8B24E030E0281B31093D872C879091DE
:1020C000ED01981710F48093ED0190E0FC01EE0F04
:1020D000FF1FEE0FFF1FEE0FFF1FE80FF91FED5D53
:1020E000FD4F0180F281E02DFD83EC838481958199
:1020F0009F838E83A481B58113961C930E931297B0
:1021000015830483EE898E2F90E0FC01EE0FFF1FF4
:10211000EE0FFF1FEE0FFF1FE80FF91FED5DFD4FE4
:10212000FB87EA8780818F5F808381E0B5CF80E085
:10213000B3CF80E0B1CF0F931F93CF93DF93EC0128
:10214000892B51F089A5861708F4862F9E89981748
:1021500019F02AA5213029F0DF91CF911F910F911D
:1021600008958E8B2C853D85332334F024E030E0B8
:10217000281B31093D872C874A855B85892F90E094
:102180009C01220F331F220F331F220F331F820F98
:10219000931F8D5D9D4F48175907F1F68E010E5F15
:1021A0001F4FC8010E9423048E899091ED0198175A
:1021B00010F48093ED0190E0FC01EE0FFF1FEE0F95
:1021C000FF1FEE0FFF1FE80FF91FED5DFD4F0180B0
:1021D000F281E02DFD83EC83848195819F838E8342
:1021E000A481B58113961C930E93129715830483D3
:1021F000EE898E2F90E0FC01EE0FFF1FEE0FFF1F08
:10220000EE0FFF1FE80FF91FED5DFD4FFB87EA871B
:1022100080818F5F8083A0CF809147029091480298
:10222000009721F0FC0122A52F5F22A70895DC0171
:10223000E0915102F0915202808191E0811190E091
:102240009C93911106C00580F681E02D80819181DB
:10225000089590E080E00895FC0173836283918784
:10226000808746175707A0F0421B530B848595853E
:102270004817590710F081E00895BF016E5F7F4F46
:1022800080914F02909150020E94F30380E00895E4
:102290004217530718F46217730758F4BF016E5FB3
:1022A0007F4F80915102909152020E94F30380E08F
:1022B000089581E00895EF92FF920F931F93CF93BB
:1022C000DF93EC018B017A0108C08C859D85080F96
:1022D000191FE889F989CE0109956C857D85600F04
:1022E000711F9801A701CE010E942C118111EDCF21
:1022F000DF91CF911F910F91FF90EF900895EF9292
:10230000FF920F931F93CF93DF938C017B01E0919A
:102310005102F09152020580F681E02DC681D781ED
:10232000CE0102960E9423048A8982FD0DC08E7F11
:102330008A8BE889F989CE010995DF91CF911F91A8
:102340000F91FF90EF900895A701B801CE010E9470
:102350005B11EFCF09C00580F681E02D6FEF7FEFB5
:10236000808191810E947F11E0915102F09152028F
:1023700080818111F0CF80914F0290915002909313
:10238000520280935102F0935002E0934F0208955D
:102390000F931F93CF93DF938C010E94A60BEC0148
:1023A0008091490290914A02C817D90760F0F8015C
:1023B0001082D0934A02C0934902CE01DF91CF919F
:1023C0001F910F9108950E94AA1181E0F801808366
:1023D000F0CFCF92DF92EF92FF921F93CF93DF93D4
:1023E0001F92CDB7DEB77C01162F0E94A00BCE0145
:1023F00001960E94C8116C018981811130C01111B0
:1024000003C0CE14DF0408F5112341F0E0914F0220
:10241000F0915002808111E0811110E0B7016C1938
:102420007D09412F80914D0290914E020E94AF088C
:102430000E94CF0C882381F00F90DF91CF911F91E4
:10244000FF90EF90DF90CF9008950E94CF0CB601DF
:10245000C7010E947F11F0CF0E945B04EDCF0E9464
:10246000CF0CEACFEF92FF920F931F93CF93DF939E
:1024700000D000D000D0CDB7DEB785E0FE013196A8
:10248000DF011D928A95E9F750E040E0BE016F5FE1
:102490007F4F80914D0290914E020E945B078823EE
:1024A00009F47BC0898188237CF30C811D81F801AC
:1024B00082859385892B21F0C80102960E9423040E
:1024C000CE0106960E94C8117C01E981E150E930F5
:1024D000D8F60E2E000CFF0BE059FD4E0C943F1465
:1024E00079127912A712AC12C21279127912A712BC
:1024F000AC12D80152968C915297816052968C936F
:1025000052972A813B811C966D917C91620F731FBB
:10251000A701C8010E942C11882309F4B5CFF80146
:10252000828982FD09C08E7F828BD8015096ED9101
:10253000FC91C8010995A8CF6A817B818485958526
:10254000680F791FA701C8010E945B11EECFF80147
:1025500082898E7F828B98CFD80152968C91529728
:10256000816052968C9352976A817B811D967C93F1
:102570006E931C976E0D7F1D9701A701C8010E94E5
:102580002C1182CFF801828981FF03C08E7F828B5C
:102590007BCFC8010E94D20377CF26960FB6F8945E
:1025A000DEBF0FBECDBFDF91CF911F910F91FF9086
:1025B000EF900895CF93DF931F92CDB7DEB7CE0192
:1025C00001960E94171169810E94E9110E9432123E
:1025D000F6CF0FB6F8940F9280914D0290914E0273
:1025E000892B19F00F900FBE08958CE592E00E94A0
:1025F000E10383E592E00E94E1038CE592E0909391
:1026000052028093510283E592E0909350028093AE
:102610004F0240E065E08AE00E948F0690934E02F0
:1026200080934D02DFCFEF92FF920F930E94E91249
:1026300080914D0290914E02892BA9F00F2EFBE460
:10264000EF2EF2E0FF2EF02D03E030E020E04CE52D
:1026500050E061E271E08AED92E10E94270B0F9158
:10266000FF90EF90089580E0FACF2091040130911F
:1026700005018FEF98E0821B930B909301018093EB
:1026800000010E94B4130E94830B08950E94081455
:102690008FE990E0892B11F00E949F00089584B18A
:1026A000806284B985B1806285B9089583B1806202
:1026B00083B908950E944F132FEF80E792E02150D5
:1026C00080409040E1F700C000000E945613F4CF14
:1026D0000E944F132FEF87EA91E6215080409040EF
:1026E000E1F700C000000E945613F4CFEC01182F50
:1026F000FE01FF27EE0FFF1FEA59FD4F6FEF7FEF3F
:10270000808191810E94F00769E271E08CE391E0A1
:102710000E9472024AE050E0612F8CE391E00E9437
:1027200007038CE090E00E94B00D8091650290E07C
:10273000019663E070E00E94091480936502E091C5
:102740006502F0E0E75CFE4FE081F0E0EE0FFF1F76
:10275000EA59FD4F20E050E040E070E060E0808109
:1027600091810E94C106C4CFEF92FF920F931F93F5
:10277000CF93DF9326E040E855E260E070E08CE321
:1027800091E00E943E0111E0143078F4C12FD0E0B6
:1027900043E060E081E00E948F06CC0FDD1FCA5944
:1027A000DD4F998388831F5FEFCFF12CE12C01E08F
:1027B00021E030E040E850E060E371E086E793E13B
:1027C0000E94270B22E030E040E850E063E371E034
:1027D00086E793E10E94270B23E030E040E850E0D9
:1027E00066E371E086E793E10E94270B20E050E06A
:1027F00040E070E060E080916802909169020E9480
:10280000C106DF91CF911F910F91FF90EF90089536
:10281000089597FB072E16F4009407D077FD09D092
:102820000E94451407FC05D03EF4909581959F4F7A
:102830000895709561957F4F0895A1E21A2EAA1B05
:10284000BB1BFD010DC0AA1FBB1FEE1FFF1FA21760
:10285000B307E407F50720F0A21BB30BE40BF50B5D
:10286000661F771F881F991F1A9469F760957095E6
:10287000809590959B01AC01BD01CF010895EE0FAD
:10288000FF1F0590F491E02D0994AA1BBB1B51E199
:1028900007C0AA1FBB1FA617B70710F0A61BB70BD0
:1028A000881F991F5A95A9F780959095BC01CD0175
:1028B00008950F931F93CF93DF938230910510F407
:1028C00082E090E0E0917002F091710230E020E04F
:1028D000B0E0A0E0309799F42115310509F44AC021
:1028E000281B390B24303105D8F58A819B8161156D
:1028F000710589F1FB0193838283FE0111C0408140
:1029000051810281138148175907E0F04817590790
:1029100099F4109761F012960C93129713961C93EA
:102920003296CF01DF91CF911F910F9108950093BF
:10293000700210937102F4CF2115310551F0421746
:10294000530738F0A901DB019A01BD01DF01F8014D
:10295000C1CFEF01F9CF9093710280937002CDCF78
:10296000FE01E20FF31F81939193225031093983C5
:102970002883D7CF20916E0230916F02232B41F430
:10298000209102013091030130936F0220936E0277
:1029900020910001309101012115310541F42DB73D
:1029A0003EB74091040150910501241B350BE09185
:1029B0006E02F0916F02E217F307A0F42E1B3F0B9B
:1029C0002817390778F0AC014E5F5F4F24173507A1
:1029D00048F04E0F5F1F50936F0240936E02819339
:1029E00091939FCFF0E0E0E09CCFCF93DF930097EF
:1029F000E9F0FC01329713821282A0917002B0912B
:102A00007102ED0130E020E01097A1F420813181C6
:102A1000820F931F20916E0230916F0228173907A1
:102A200009F061C0F0936F02E0936E02DF91CF91E5
:102A30000895EA01CE17DF07E8F54A815B819E0120
:102A400041155105B1F7E901FB83EA834991599199
:102A5000C40FD51FEC17FD0761F4808191810296A8
:102A6000840F951FE90199838883828193819B83D9
:102A70008A83F0E0E0E012968D919C911397009785
:102A8000B9F52D913C911197CD010296820F931FBC
:102A900020916E0230916F022817390739F630976E
:102AA00051F51092710210927002B0936F02A093D0
:102AB0006E02BCCFD383C28340815181840F951FA6
:102AC000C817D90761F44E5F5F4F88819981480F1D
:102AD000591F518340838A819B819383828321156F
:102AE000310509F0B0CFF0937102E09370029ECFF0
:102AF000FD01DC01C0CF13821282D7CFFB01DC01C4
:102B000002C001900D9241505040D8F70895DC0169
:102B100001C06D9341505040E0F70895F894FFCF05
:102B20000000720220000300000000F40042028E48
:102B300000D1005F007A006C000D0A0049444C454A
:102B400000546D72205376630054617265612000F9
:0C2B5000543100543200543300010302E1
:00000001FF
