:100000000C9477000C949F000C949F000C949F001C
:100010000C949F000C949F000C94D3050C949F00AB
:100020000C949F000C949F000C949F000C949F00D4
:100030000C949F000C949F000C949F000C949F00C4
:100040000C9489030C949F000C9415020C944D029F
:100050000C949F000C949F000C949F000C949F00A4
:100060000C949F000C949F004552524F523A2073BB
:10007000696E20686561702070617261206C6F73B9
:100080002073656D61666F726F73006D73203D3D07
:1000900000202D207469636B3D003D3D20456A655D
:1000A00072636963696F2034202D20736563756501
:1000B0006E63696120006D7320737461636B3D0032
:1000C0002D2D206369636C6F3D00757300742020D3
:1000D0007265616C3D00202064743D0020207469CD
:1000E000636B3D0054617265612000007D02112444
:1000F0001FBECFEFD8E0DEBFCDBF11E0A0E0B1E082
:10010000E0E6FEE202C005900D92A833B107D9F7F0
:1001100022E0A8E3B1E001C01D92A837B207E1F7E1
:1001200010E0C7E7D0E004C02197FE010E94DF1570
:10013000C637D107C9F70E947A030C942E170C9486
:100140000000FC01218D30E0205C3F4F828DA90131
:10015000481B5109CA018F7399270895FC01918D9D
:10016000828D981731F0828DE80FF11D858D90E01A
:1001700008958FEF9FEF0895FC01918D828D981760
:1001800061F0A28DAE0FBF2FB11D5D968C91928D47
:100190009F5F9F73928F90E008958FEF9FEF089578
:1001A000FC01938D848D981720F4891B990B01977E
:1001B00008952FE330E0291B3109820F932F911D01
:1001C000089583E792E0892B41F080E090E0892B4D
:1001D00021F00E947302811101C008950E94000065
:1001E000FCCFFC01A48DA80FB92FB11DA35ABF4F9E
:1001F0002C91848D90E001968F739078848FA689DE
:10020000B7892C93A089B1898C91837080648C9379
:10021000938D848D981308950288F389E02D808151
:100220008F7D8083F8CFCF93DF93EC01888D811190
:1002300004C00DC00FB607FE0DC0EA89FB8980819E
:1002400085FDF8CFA889B9898C9186FFF3CFDF911E
:10025000CF910895808185FFF0CFE889F989808169
:1002600085FFEBCFCE010E94F100E7CF0F931F93E4
:10027000CF93DF93EC0181E0888F9B8D8C8D981755
:10028000B1F0062F8B8D90E001968F739078182F28
:100290008C8D81131EC00FB607FCFACFE889F9894F
:1002A000808185FFF5CFCE010E94F100F1CFE88972
:1002B000F989808185FFE5CF9FB7F894EE89FF89A2
:1002C0006083E889F98980818370806480839FBF1F
:1002D00010C0EB8DEC0FFD2FF11DE35AFF4F008393
:1002E0009FB7F8941B8FEA89FB89808180628083A5
:1002F0009FBF81E090E0DF91CF911F910F91089512
:10030000CF92DF92EF92FF921F93CF93DF93EC0196
:100310006A017B01122F60E079E08DE390E0A70194
:1003200096010E94BD152150310941095109569588
:10033000479537952795E889F98982E08083C1142C
:1003400081EED806E104F10421F0211580E138079F
:1003500098F0E889F989108260E874E88EE190E00D
:10036000A70196010E94BD1521503109410951098B
:100370005695479537952795EC85FD853083EE8515
:10038000FF852083188EEC89FD891083EA89FB891B
:10039000808180618083EA89FB8980818860808395
:1003A000EA89FB89808180688083EA89FB89808172
:1003B0008F7D8083DF91CF911F91FF90EF90DF9031
:1003C000CF900895019709F008956F3F7F4FE1F7AF
:1003D000E8E3F1E01382128288EE93E0A0E0B0E05F
:1003E00084839583A683B7838BE091E09183808398
:1003F00085EC90E09587848784EC90E097878687EA
:1004000080EC90E0918B808B81EC90E0938B828BE1
:1004100082EC90E0958B848B86EC90E0978B868BBA
:10042000118E128E138E148ECFCF1F920F920FB695
:100430000F9211242F938F939F93AF93BF93EF93BA
:10044000FF93E0914801F0914901808182FD14C041
:10045000E8E3F1E0A689B7892C91818D8F5F8F73D6
:10046000928D891771F0DF01E18DF0E0E85CFE4FBD
:10047000258F59968C9305C0E0914E01F0914F0164
:100480008081FF91EF91BF91AF919F918F912F91BB
:100490000F900FBE0F901F9018951F920F920FB6DE
:1004A0000F9211242F933F934F935F936F937F93FA
:1004B0008F939F93AF93BF93EF93FF9388E391E064
:1004C0000E94F100FF91EF91BF91AF919F918F91A9
:1004D0007F916F915F914F913F912F910F900FBE40
:1004E0000F901F90189588E391E00E94A10021E0F1
:1004F000892B09F420E0822F08956FEF7FEF81E0D0
:1005000090E00E94E2010895CF92DF92EF92FF9275
:100510000F931F93CF93DF938C01DB01D0E0C0E0FA
:100520007A0181E0E81AF108452BA1F0F8018081F9
:100530009181FC01208131816D01FFEFCF1ADF0A2B
:100540006C91C801F9010995892B21F02196A70129
:10055000D601E6CFCE01DF91CF911F910F91FF9091
:10056000EF90DF90CF900895EF92FF920F931F933B
:10057000CF93DF938C01FB01D0E0C0E07F018FEFD0
:10058000E81AF80A6491662369F0D801ED91FC91AC
:100590000190F081E02DC8010995892B19F0219671
:1005A000F701ECCFCE01DF91CF911F910F91FF901A
:1005B000EF900895DC01ED91FC910190F081E02D28
:1005C00009950895DC01ED91FC910280F381E02D05
:1005D00042E050E069E171E0099508950F931F939F
:1005E000CF93DF93EC010E94B4028C01CE010E94F4
:1005F000E202800F911FDF91CF911F910F9108951B
:10060000DF92EF92FF920F931F93CF93DF93CDB7BB
:10061000DEB7A1970FB6F894DEBF0FBECDBF7C0149
:10062000CB01BA01D22E19A221E02D1520F48E01A2
:100630000F5D1F4F0EC00F2EFAE0DF2EF02DF7CF0B
:10064000E95CD801EE938D01611571058105910575
:1006500079F02D2D30E050E040E00E94BD15E62FEE
:10066000622F732F842F952FEA3054F7E05DE9CF86
:100670001097F9F0FD0101900020E9F73197AF01E3
:100680004A1B5B0BD701ED91FC910280F381E02DB9
:10069000B801C7010995A1960FB6F894DEBF0FBE49
:1006A000CDBFDF91CF911F910F91FF90EF90DF9021
:1006B000089590E080E0EFCF2115310549F4DC0189
:1006C000ED91FC910190F081E02D642F0995089542
:1006D0000E94000308959A01462F50E070E060E008
:1006E0000E945C0308959A01AB0170E060E00E94F3
:1006F0005C0308950E940A040E94D3130E9403150C
:100700000E94A81581EE90E0892BD1F30E94E100B0
:10071000F7CF1F920F920FB60F9211240F931F93D2
:100720002F933F934F935F936F937F938F939F93F9
:10073000AF93BF930091D6011091D7012091D801BA
:100740003091D9019091D501B901A8014F5F5F4F58
:100750006F4F7F4F83E0890F8D3740F086E8890F18
:10076000B901A8014E5F5F4F6F4F7F4F8093D50156
:100770004093D6015093D7016093D8017093D9016B
:100780008091DA019091DB01A091DC01B091DD0153
:100790000196A11DB11D8093DA019093DB01A09316
:1007A000DC01B093DD01BF91AF919F918F917F915B
:1007B0006F915F914F913F912F911F910F910F90EA
:1007C0000FBE0F901F9018953FB7F8948091DA01F3
:1007D0009091DB01A091DC01B091DD0126B5A89BD1
:1007E00005C02F3F19F00196A11DB11D3FBFBA2FC3
:1007F000A92F982F8827BC01CD01620F711D811D83
:10080000911D660F771F881F991F660F771F881F1E
:10081000991F0895789484B5826084BD84B5816001
:1008200084BD85B5826085BD85B5816085BDEEE6F8
:10083000F0E0808181608083E1E8F0E010828081D7
:1008400082608083808181608083E0E8F0E0808145
:1008500081608083E1EBF0E0808184608083E0EB65
:10086000F0E0808181608083EAE7F0E0808184604D
:1008700080838081826080838081816080838081A9
:10088000806880831092C1000895CF93DF93EC01BC
:100890000E94310CCE010E94F915EC010E94600DFE
:1008A000209721F0CE01DF91CF9108950E94F81397
:1008B000F9CFCF93DF93009741F0EC010E94310C08
:1008C000CE010E9495160E94600DDF91CF91089590
:1008D000FC010396928381832FEF3FEF34832383C0
:1008E000968385839087878310820895FC01118603
:1008F00010860895CF93DF93EB01488159814F3FD4
:10090000540719F0DC01139605C0FC01A781B085DE
:100910000AC0DF011296ED91FC911397208131817D
:1009200042175307B0F71296ED91FC911397FB8392
:10093000EA83D583C483BD83AC831396DC93CE93C3
:10094000129799878887FC0120812F5F2083DF9190
:10095000CF910895CF93DF93FC01A085B185C2812B
:10096000D381848195819D838C83C481D58182814B
:1009700093819B838A8311968D919C9112978E17F8
:100980009F0741F0118610868C9181508C93DF91E6
:10099000CF9108958481958112969C938E9311979F
:1009A000F1CFFC01608331977083319710823197CA
:1009B00020E82083319710827797408331975083C6
:1009C000839708950F920FB6F8940F921F921124F7
:1009D0002F923F924F925F926F927F928F929F924F
:1009E000AF92BF92CF92DF92EF92FF920F931F933D
:1009F0002F933F934F935F936F937F938F939F9327
:100A0000AF93BF93CF93DF93EF93FF93A0914302F4
:100A1000B09144020DB60D920EB60D920E94550E85
:100A2000A0914302B0914402CD91CDBFDD91DEBFD4
:100A3000FF91EF91DF91CF91BF91AF919F918F91F6
:100A40007F916F915F914F913F912F911F910F91E6
:100A5000FF90EF90DF90CF90BF90AF909F908F90DE
:100A60007F906F905F904F903F902F901F900F90CE
:100A70000FBE0F9008950F920FB6F8940F921F9229
:100A800011242F923F924F925F926F927F928F929A
:100A90009F92AF92BF92CF92DF92EF92FF920F930D
:100AA0001F932F933F934F935F936F937F938F93F6
:100AB0009F93AF93BF93CF93DF93EF93FF93A09157
:100AC0004302B09144020DB60D920EB60D9213BEC4
:100AD0000E94410C81110E94550EA0914302B091D9
:100AE0004402CD91CDBFDD91DEBFFF91EF91DF914B
:100AF000CF91BF91AF919F918F917F916F915F91B6
:100B00004F913F912F911F910F91FF90EF90DF90A8
:100B1000CF90BF90AF909F908F907F906F905F909D
:100B20004F903F902F901F900F900FBE0F90089501
:100B3000A89588E190EC0FB6F894A8958093600092
:100B40000FBE9093600008950E949805A091430203
:100B5000B0914402CD91CDBFDD91DEBFFF91EF9109
:100B6000DF91CF91BF91AF919F918F917F916F91C5
:100B70005F914F913F912F911F910F91FF90EF90B7
:100B8000DF90CF90BF90AF909F908F907F906F90AD
:100B90005F904F903F902F901F900F900FBE0F903F
:100BA000089581E008950E943B051895DC01519657
:100BB0002C915197222339F05696ED91FC9190811A
:100BC00084E0891B089580E008950FB6F8940F9291
:100BD000FC01828D882321F080E00F900FBE0895E4
:100BE00081E0FBCF0FB6F8940F92FC01228D838D2C
:100BF000281721F080E00F900FBE089581E0FBCF11
:100C00000F931F93CF93DF93EC01042F1A8D4C8D1C
:100C1000411113C088819981892B41F080E01F5FC9
:100C20001A8FDF91CF911F910F9108958C819D8133
:100C30000E94D7101D821C82F2CF011118C050E013
:100C40008A819B810E941E178C8D2A813B81820F95
:100C5000932F911D9B838A832C813D81821793075B
:100C600050F1888199819B838A8380E0D8CF50E0BE
:100C70008E819F810E941E178C8D90E091958195A9
:100C800091092E813F81280F391F3F832E83488190
:100C900059812417350730F42C813D81820F931F31
:100CA0009F838E83023011F080E0B9CF112329F0A9
:100CB000115080E0B4CF80E0B2CF80E0B0CFFC0133
:100CC000448D4423A9F050E026813781240F351F3D
:100CD00037832683848195812817390720F0808106
:100CE000918197838683CB01668177810E941E174D
:100CF00008951F93CF93DF93EC010FB6F8940F92F2
:100D00001E8D03C00E9434101150111654F48989AD
:100D1000882339F0CE0141960E942D0F8823A1F33C
:100D2000F1CF8FEF8E8F0F900FBE0FB6F8940F920A
:100D30001D8D03C00E9434101150111654F4888583
:100D4000882339F0CE0108960E942D0F8823A1F345
:100D5000F1CF8FEF8D8F0F900FBEDF91CF911F914D
:100D60000895CF93DF93009709F447C0FC01238DCA
:100D7000222309F444C0EC010FB6F8940F922081AD
:100D80003181838D90E0448D50E0849FF001859FF8
:100D9000F00D949FF00D1124E20FF31FFD83EC83FF
:100DA0001A8E3B832A830197849FF001859FF00D63
:100DB000949FF00D11242E0F3F1F3F832E838FEF42
:100DC0008D8F8E8F611110C08885811104C00F90A6
:100DD0000FBE81E015C0CE0108960E942D0F88231A
:100DE000B1F30E94E204F3CFCE0108960E9468049A
:100DF000CE0141960E946804EACF80E001C080E005
:100E0000DF91CF9108950F931F93F801662359F056
:100E100051834083838F648F61E0CF010E94B106CC
:100E20001F910F91089511830083F4CFDF92EF9209
:100E3000FF920F931F93CF93DF93882319F1869F1F
:100E400090011124213E9FEF3907F8F4D42ED62FBC
:100E5000C82FC9014F960E9445047C01009749F0B4
:100E60008C012D2DAC01415E5F4F6D2F8C2F0E94A8
:100E70000307C701DF91CF911F910F91FF90EF9072
:100E8000DF900895F12CE12CF4CFF12CE12CF1CF7F
:100E9000CF92DF92EF92FF920F931F93CF93DF9346
:100EA00000D000D01F92CDB7DEB78C017B015D83EF
:100EB0004C83C22ED12C3CC04C2DB701C8010E94DE
:100EC0000006F8019189911113C081111AC00F9089
:100ED0000FBE81E00F900F900F900F900F90DF9159
:100EE000CF911F910F91FF90EF90DF90CF900895D9
:100EF000C80141960E942D0F882349F30E94E20405
:100F0000E6CF0E94E204E3CF0F900FBE80E0E2CF75
:100F1000CE0101960E94EC0FDD24D3941CC0158EE7
:100F200025C0168E27C0C8010E9479060E94600D58
:100F30000FB6F8940F92F801928D838D981708F4EC
:100F4000BBCFF2E0CF1609F4B7CF8C819D81892BFE
:100F5000D9F2DD20E9F20F900FBE0E94310C0FB6DE
:100F6000F8940F92F801858D8F3FC9F2F801868DB4
:100F70008F3FB9F20F900FBEBE016C5F7F4FCE0165
:100F800001960E94F70F811116C0C8010E94F20558
:100F9000882309F4C8CF6C817D81C80108960E941E
:100FA000D20EC8010E9479060E94600D8111C0CF47
:100FB0000E94E204BDCFC8010E9479060E94600D24
:100FC00080E088CFCF92DF92EF92FF920F931F9332
:100FD000CF93DF9300D000D01F92CDB7DEB78C0146
:100FE0006B015D834C83E12C43C0B601C8010E94B4
:100FF0005F06FA94F801F28E8085811111C00F907E
:101000000FBE81E00F900F900F900F900F90DF9127
:10101000CF911F910F91FF90EF90DF90CF900895A7
:10102000C80108960E942D0F882349F30E94E2040C
:10103000E6CF0F900FBE80E0E5CFCE0101960E9473
:10104000EC0FEE24E39421C0158E2AC0168E2CC01E
:10105000C8010E9479060E94600D0AC0C8010E9462
:1010600079060E94600DC8010E94E50581113DC00E
:101070000FB6F8940F92F801F28CF110B6CF8C8174
:101080009D81892BB1F2EE20C1F20F900FBE0E941C
:10109000310C0FB6F8940F92F801858D8F3FA1F2B5
:1010A000F801868D8F3F91F20F900FBEBE016C5FED
:1010B0007F4FCE0101960E94F70F8111CFCFC8015B
:1010C0000E94E505882309F4C3CF6C817D81C801A6
:1010D00041960E94D20EC8010E9479060E94600DBE
:1010E0008111C6CF0E94E204C3CF80E08BCFEF9284
:1010F000FF920F931F93CF93DF9300D000D01F92E6
:10110000CDB7DEB78C017D836C83E12CF12C54C00C
:101110008150828F80819181892BA9F0F80180858F
:10112000811117C00F900FBEEE24E3948E2D0F9007
:101130000F900F900F900F90DF91CF911F910F9113
:10114000FF90EF9008950E94AA11F801958384837F
:10115000E5CFC80108960E942D0F882319F30E943D
:10116000E204E0CF0F900FBEE12CE0CFCE0101965C
:101170000E94EC0FFF24F3942EC0158E38C0168EFB
:101180003BC00FB6F8940F92848195810E94451060
:10119000E82E0F900FBE47C0C8010E9479060E943A
:1011A000600D0AC0C8010E9479060E94600DC80146
:1011B0000E94E505811147C00FB6F8940F92F8011F
:1011C000828D8111A5CF8C819D81892B09F4CACF95
:1011D000FF2009F4CBCF0F900FBE0E94310C0FB649
:1011E000F8940F92F801858D8F3F09F4C6CFF8016E
:1011F000868D8F3F09F4C3CF0F900FBEBE016C5F89
:101200007F4FCE0101960E94F70F8111CBCFC8010D
:101210000E94E505882309F4BFCFF8018081918100
:10122000892B09F4AECF6C817D81C80141960E9463
:10123000D20EC8010E9479060E94600D8111BCCFB8
:101240000E94E204B9CFEE2009F470CF0FB6F894F3
:101250000F92C8010E94D605682FF80184819581FC
:101260000E9439110F900FBEE12C60CFCF93DF9316
:10127000EC010FB6F8940F928D8D8F3F71F08E8D2B
:101280008F3F69F00F900FBE8A8D882351F0CE01F9
:101290000E947906DF91CF9108951D8EF0CF1E8EAA
:1012A000F1CFCE0141960E94E40EF1CFFC0190E017
:1012B00080E002C0319601962081253AD9F3089545
:1012C000E0910B02F0910C028081882371F0E09193
:1012D0000B02F0910C020580F681E02D8081918156
:1012E0009093E2018093E10108958FEF9FEF909337
:1012F000E2018093E1010895CF93DF93EC018F89A0
:10130000988D0E945904CE010E945904DF91CF911B
:1013100008954F925F926F927F928F929F92AF92B9
:10132000BF92CF92DF92EF92FF920F93CF93DF9312
:101330002C015B014A013901E60165EA70E08F8901
:10134000988D0E9427178F89988D21E0821A910825
:10135000880E991EA114B104A1F020E0203180F480
:10136000822F90E0F501E80FF91F30818C0F9D1F4F
:10137000DC0159963C938081882311F02F5FEECFDA
:1013800018A6043008F003E00E8B09A7CE010296E0
:101390000E947604CE010C960E947604D987C887F5
:1013A00084E090E0801B91099D878C87DB8BCA8B42
:1013B000A301B201C4010E94D10499838883E1147E
:1013C000F10419F0F701D183C083DF91CF910F9120
:1013D000FF90EF90DF90CF90BF90AF909F908F9055
:1013E0007F906F905F904F9008952F923F924F9211
:1013F0005F926F927F928F929F92AF92BF92CF92A5
:10140000DF92EF92FF920F93CF93DF934C011B017A
:101410002A013901CA010E9445046C01892B81F11E
:1014200080E390E00E944504EC01892B29F180E3E0
:10143000FE0111928A95E9F7D88ECF8A209749F05C
:10144000B12CA12C6E019301A201B101C4010E9433
:101450008909CE01DF91CF910F91FF90EF90DF903E
:10146000CF90BF90AF909F908F907F906F905F9044
:101470004F903F902F900895C6010E945904DECFEF
:10148000D0E0C0E0E6CFCF93C0E010C02C2F30E01A
:10149000C901880F991F880F991F880F991F820F04
:1014A000931F815E9D4F0E946804CF5FC43070F32C
:1014B00086E192E00E9468048DE092E00E94680458
:1014C00080E092E00E94680487EF91E00E94680447
:1014D0008DEE91E00E94680486E192E090930C0208
:1014E00080930B028DE092E090930A0280930902B0
:1014F000CF910895CF93DF93EC010FB6F8940F923C
:101500008091EC018F5F8093EC0180914302909178
:101510004402892B89F08091E801811116C0E09185
:101520004302F091440296898E89891770F0D09316
:101530004402C093430209C0D0934402C0934302C3
:101540008091EC01813009F44FC08091E3018F5FFD
:101550008093E3018E899091E901981710F48093AC
:10156000E90190E0FC01EE0FFF1FEE0FFF1FEE0FF1
:10157000FF1FE80FF91FE15EFD4F0180F281E02DB2
:10158000FD83EC83848195819F838E83A481B581C3
:10159000CE01029613969C938E9312979583848323
:1015A000EE898E2F90E0FC01EE0FFF1FEE0FFF1F64
:1015B000EE0FFF1FE80FF91FE15EFD4FFB87EA8783
:1015C00080818F5F80830F900FBE8091E801882318
:1015D00041F0E0914302F091440296898E89981778
:1015E00030F0DF91CF9108950E94430AAECF0E9460
:1015F000E204F7CFCF93DF931CC00FB6F8940F929D
:10160000E091FC01F091FD01C681D781CE010296E7
:101610000E94AA048091EC0181508093EC0180919A
:10162000F60181508093F6010F900FBECE010E940B
:101630007C098091F6018111E0CFDF91CF9108956F
:10164000BF92CF92DF92EF92FF920F931F93CF93AF
:10165000DF93EC01B62E0091EA011091EB01E090CE
:101660000B02F0900C02C0900902D0900A02809107
:1016700043029091440202960E94AA04CF3FDC07E5
:1016800011F1C00FD11FE0914302F0914402D383C6
:10169000C283C017D10708F44CC060914302709117
:1016A00044026E5F7F4FC7010E947A048091E1017E
:1016B0009091E201C817D90708F044C0D093E20125
:1016C000C093E1013FC0BB20E1F2EDEEF1E0A1816A
:1016D000B281C0914302D0914402BD83AC83C091DA
:1016E0004302D091440214968D919C9115979F834B
:1016F0008E8380914302909144021496CD91DC91A7
:10170000159702969B838A838091430290914402AD
:10171000029615969C938E931497A0914302B091D4
:1017200044021B96FC93EE931A9780818F5F80830F
:1017300009C060914302709144026E5F7F4FC60101
:101740000E947A04DF91CF911F910F91FF90EF904B
:10175000DF90CF90BF90089502C00E94E4130E94D2
:10176000FA0A80911F028230C0F30E94E204F5CF92
:10177000EF92FF920F930E94F509009739F00E94B3
:101780007A0A81E00F91FF90EF9008958FEFFACFE2
:10179000EF92FF920F931F93CF93DF93CDB7DEB7F6
:1017A00060970FB6F894DEBF0FBECDBF80E08031EA
:1017B0009CF4E82F082E000CFF0BDF01A45EBE4F47
:1017C0009C9121E030E02C0F3D1FE20FF31F90832E
:1017D000992311F08F5FEBCF10E081E011166CF4CC
:1017E00060960FB6F894DEBF0FBECDBFDF91CF91EC
:1017F0001F910F91FF90EF900895E12EEE0CFF08DE
:10180000C70181529E4F7C0100E030E020E040ECB7
:1018100050E0BE016F5F7F4F8CEA9BE00E94B80BE7
:101820008823F1F21F5FDACF0E94C80B813029F0C4
:10183000813031F08091060108950E94B113F8CFF4
:10184000F8948FEF9FEF9093E2018093E10181E0A4
:101850008093E8011092EB011092EA010E94A40526
:10186000E9CF8091DE018F5F8093DE0108950FB68E
:10187000F8940F928091EA019091EB010F900FBEC6
:1018800008950F931F93CF93DF938091DE01811111
:1018900008C1C091EA01D091EB018E010F5F1F4F8B
:1018A0001093EB010093EA010115110529F18091D4
:1018B000E1019091E20108171907B0F580E0E0918D
:1018C0004302F0914402E6892E2F30E0F901EE0F39
:1018D000FF1FEE0FFF1FEE0FFF1FE20FF31FE15E72
:1018E000FD4F9081923008F081E09091E5019923BD
:1018F00009F4E1C081E0DFC080910B0290910C02FD
:101900002091090230910A0230930C0220930B02BD
:1019100090930A02809309028091E4018F5F809383
:10192000E4010E946009C3CF80E05EC02FEF3FEF6B
:101930003093E2012093E101C2CF3093E201209382
:10194000E101BDCF2681378112963C932E931197EA
:101950007EC0158A148A9C9191509C9326899091FF
:10196000E901921710F42093E90130E0D901AA0FA0
:10197000BB1FAA0FBB1FAA0FBB1FA20FB31FA15EE5
:10198000BD4F11960D90BC91A02DB583A4831496E4
:101990002D913C9115973783268314962D913C9178
:1019A0001597E9015B834A8315965C934E931497D0
:1019B000A6892A2F30E0D901AA0FBB1FAA0FBB1F8F
:1019C000AA0FBB1FA20FB31FA15EBD4FB387A28793
:1019D0009C919F5F9C932689E0914302F091440281
:1019E0009689921708F481E0E0910B02F0910C02C5
:1019F0009081992309F49ACFE0910B02F0910C02A7
:101A00000580F681E02D0680F781E02D228133816B
:101A10000217130708F491CFA285B385248135817D
:101A200046815781E9015D834C832681378144815A
:101A30005581E9015B834A8311962D913C91129760
:101A4000AF014E5F5F4F2417350709F47BCF138634
:101A500012869C9191509C93A489B589109709F4A2
:101A60007DCF2685378560897189E9017D836C8307
:101A70002089318966857785E9017B836A831196A0
:101A80006D917C9112979F01245F3F4F62177307FE
:101A900009F05FCF2089318912963C932E931197DC
:101AA00058CF8091E6019091E70101969093E7016C
:101AB0008093E60180E0DF91CF911F910F9108950F
:101AC000CF93DF930FB6F8940F928091DE0181508F
:101AD0008093DE018091DE018111CDC08091EC0107
:101AE000882309F4C9C0F0E0E0E080910002882377
:101AF00009F49AC0E0910502F09106020680F78190
:101B0000E02DA489B589C685D785808991899D8373
:101B10008C83C089D189868597859B838A8311961A
:101B20002D913C911297CF010C962817390709F493
:101B30006DC0158A148A8C9181508C93A285B385CF
:101B4000C481D581868197819D838C83C681D7810D
:101B5000848195819B838A8311968D919C911297A4
:101B60009F012E5F3F4F8217930709F456C01386DB
:101B700012868C9181508C9386899091E9019817F7
:101B800010F48093E90190E0DC01AA0FBB1FAA0FBB
:101B9000BB1FAA0FBB1FA80FB91FA15EBD4F119697
:101BA0000D90BC91A02DB583A48314968D919C912A
:101BB0001597978386831496CD91DC9115973B8377
:101BC0002A8315963C932E931497A6898A2F90E02A
:101BD000DC01AA0FBB1FAA0FBB1FAA0FBB1FA80FB8
:101BE000B91FA15EBD4FB387A2878C918F5F8C9385
:101BF0009689A0914302B091440256968C91891720
:101C000008F073CF81E08093E5016FCF80899189DF
:101C100012969C938E9311978CCF86819781129602
:101C20009C938E931197A3CFEF2B11F00E94600924
:101C3000C091E601D091E701209741F48091E50140
:101C4000811111C080E018C0219741F00E94410C21
:101C50008823D1F381E08093E501F6CF1092E7016C
:101C60001092E601EBCF80914302909144020E94D2
:101C7000E20481E001C080E00F900FBEDF91CF91C0
:101C80000895CF93DF93EC01892B51F00E94310C22
:101C900060E0CE010E94200B0E94600D811102C005
:101CA0000E94E204DF91CF9108958091DE018111BD
:101CB00014C01092E501E0914302F09144022081AA
:101CC0003181E0914302F09144028789908D82171F
:101CD000930738F42091E90112C081E08093E50177
:101CE00008956091430270914402675E7F4F809136
:101CF0004302909144020E940614ECCF2150822F9F
:101D000090E0FC01EE0FFF1FEE0FFF1FEE0FFF1F15
:101D1000E80FF91FE15EFD4F3081332379F3AC0109
:101D2000440F551F440F551F440F551F480F591F8F
:101D3000FA01E15EFD4FA181B28112966D917C9115
:101D4000728361834E5D5D4F64177507D9F0FC01A6
:101D5000EE0FFF1FEE0FFF1FEE0FFF1FE80FF91F23
:101D6000E15EFD4F0180F281E02D868197819093A5
:101D70004402809343022093E901809143029091B1
:101D800044020895FC01EE0FFF1FEE0FFF1FEE0F40
:101D9000FF1FE80FF91FE15EFD4F45815681528319
:101DA0004183D5CFCF93DF93EB01609143027091D4
:101DB0004402645F7F4F0E947A0461E0CE010E947A
:101DC000200BDF91CF9108950F931F93CF93DF9353
:101DD000FC018B01A181B281809143029091440268
:101DE000EC01BF87AE878091430290914402149624
:101DF0002D913C911597EC01398B288B2091430252
:101E00003091440214968D919C911597245F3F4F19
:101E1000EC013B832A832091430230914402245FEA
:101E20003F4F15963C932E931497A0914302B09187
:101E300044025596FC93EE93549790819F5F908354
:101E4000442311F00FEF1FEF642FC8010E94200BF5
:101E5000DF91CF911F910F910895CF93DF93DC0114
:101E60001596ED91FC910680F781E02DA489B58946
:101E7000C685D785808991899D838C83C089D189C6
:101E8000868597859B838A8311968D919C91129765
:101E90009F01245F3F4F8217930709F471C0158A91
:101EA000148A8C9181508C938091DE01811176C0CF
:101EB000A285B385C481D581868197819D838C83DA
:101EC000C681D781848195819B838A8311968D9168
:101ED0009C9112979F012E5F3F4F8217930709F441
:101EE00056C0138612868C9181508C93868990916E
:101EF000E901981710F48093E90190E0DC01AA0F42
:101F0000BB1FAA0FBB1FAA0FBB1FA80FB91FA15E43
:101F1000BD4F11960D90BC91A02DB583A48314964E
:101F20008D919C911597978386831496CD91DC9122
:101F300015973B832A8315963C932E931497A68975
:101F40008A2F90E0DC01AA0FBB1FAA0FBB1FAA0FAC
:101F5000BB1FA80FB91FA15EBD4FB387A2878C918D
:101F60008F5F8C939689E0914302F09144028689B9
:101F7000891780F581E08093E501DF91CF91089585
:101F80008089918912969C938E93119788CF868130
:101F9000978112969C938E931197A3CF40E052E0C5
:101FA000DA011196CD91DC91D787C6878C819D810E
:101FB000918B808B8C819D81DC0113963C932E93B9
:101FC00012973D832C83558B448BDA018C918F5F64
:101FD0008C93C8CF80E0D1CF2091E401FC01208315
:101FE0002091EA013091EB013283218308951F9300
:101FF000CF93DF930FB6F8940F924091EA0150917E
:10200000EB01DC011196ED91FC91DA01AE1BBF0BE7
:10201000EB01288139812F3F320721F1EC01188132
:10202000C091E4011C1719F04E175F0768F4A2175E
:10203000B30778F0EB011982188281E00F900FBE90
:10204000DF91CF911F910895FB011182108281E0F1
:10205000F5CF2A1B3B0BDB012D933C930E94EC0F29
:1020600080E0ECCF80E0EACF81E08093E501089545
:10207000009731F0FC018789908D0E9456090895E0
:102080008091430290914402F5CF0F931F93CF9319
:10209000DF93EC01892B09F488C08E89A09143025B
:1020A000B091440256969C91891708F072C02C8515
:1020B0003D85332364F0A0914302B09144025696CB
:1020C0009C9124E030E0291B31093D872C874A850B
:1020D0005B8590E09C01220F331F220F331F220FDC
:1020E000331F820F931F815E9D4F4817590769F078
:1020F000A0914302B091440256968C918E8B81E060
:10210000DF91CF911F910F9108958E010E5F1F4FA8
:10211000C8010E94AA04E0914302F091440286891A
:102120008E8B9091E901981710F48093E90190E06B
:10213000FC01EE0FFF1FEE0FFF1FEE0FFF1FE80F5A
:10214000F91FE15EFD4F0180F281E02DFD83EC83FC
:10215000848195819F838E83A481B58113961C937E
:102160000E93129715830483EE898E2F90E0FC0165
:10217000EE0FFF1FEE0FFF1FEE0FFF1FE80FF91FFF
:10218000E15EFD4FFB87EA8780818F5F808381E07E
:10219000B7CF99A5E0914302F09144028689981740
:1021A00010F481E0ADCF80E0ABCF80E0A9CF0F93FA
:1021B0001F93CF93DF93EC01892B09F456C08AA5B6
:1021C00081508AA72E8999A5291709F450C0882320
:1021D00031F080E0DF91CF911F910F9108958E0132
:1021E0000E5F1F4FC8010E94AA0489A58E8B24E0B0
:1021F00030E0281B31093D872C879091E901981721
:1022000010F48093E90190E0FC01EE0FFF1FEE0F48
:10221000FF1FEE0FFF1FE80FF91FE15EFD4F01806A
:10222000F281E02DFD83EC83848195819F838E83F1
:10223000A481B58113961C930E9312971583048382
:10224000EE898E2F90E0FC01EE0FFF1FEE0FFF1FB7
:10225000EE0FFF1FE80FF91FE15EFD4FFB87EA87D6
:1022600080818F5F808381E0B5CF80E0B3CF80E055
:10227000B1CF0F931F93CF93DF93EC01892B51F0D4
:1022800089A5861708F4862F9E89981719F02AA524
:10229000213029F0DF91CF911F910F9108958E8BFE
:1022A0002C853D85332334F024E030E0281B3109B0
:1022B0003D872C874A855B85892F90E09C01220F02
:1022C000331F220F331F220F331F820F931F815E94
:1022D0009D4F48175907F1F68E010E5F1F4FC80139
:1022E0000E94AA048E899091E901981710F48093B6
:1022F000E90190E0FC01EE0FFF1FEE0FFF1FEE0F54
:10230000FF1FE80FF91FE15EFD4F0180F281E02D14
:10231000FD83EC83848195819F838E83A481B58125
:1023200013961C930E93129715830483EE898E2FB8
:1023300090E0FC01EE0FFF1FEE0FFF1FEE0FFF1FDF
:10234000E80FF91FE15EFD4FFB87EA8780818F5F11
:102350008083A0CF8091430290914402009721F0A6
:10236000FC0122A52F5F22A70895DC01E0914D0218
:10237000F0914E02808191E0811190E09C93911147
:1023800006C00580F681E02D80819181089590E05E
:1023900080E00895FC0173836283918780874617EC
:1023A0005707A0F0421B530B8485958548175907A2
:1023B00010F081E00895BF016E5F7F4F80914B0266
:1023C00090914C020E947A0480E0089542175307CE
:1023D00018F46217730758F4BF016E5F7F4F809146
:1023E0004D0290914E020E947A0480E0089581E0AF
:1023F0000895EF92FF920F931F93CF93DF93EC0119
:102400008B017A0108C08C859D85080F191FE8890A
:10241000F989CE0109956C857D85600F711F980142
:10242000A701CE010E94CA118111EDCFDF91CF919A
:102430001F910F91FF90EF900895EF92FF920F93ED
:102440001F93CF93DF938C017B01E0914D02F091BC
:102450004E020580F681E02DC681D781CE0102961D
:102460000E94AA048A8982FD0DC08E7F8A8BE8892A
:10247000F989CE010995DF91CF911F910F91FF90BE
:10248000EF900895A701B801CE010E94F911EFCF96
:1024900009C00580F681E02D6FEF7FEF808191818B
:1024A0000E941D12E0914D02F0914E028081811137
:1024B000F0CF80914B0290914C0290934E0280930A
:1024C0004D02F0934C02E0934B0208950F931F933B
:1024D000CF93DF938C010E94370CEC018091450271
:1024E00090914602C817D90760F0F8011082D09386
:1024F0004602C0934502CE01DF91CF911F910F910B
:1025000008950E94481281E0F8018083F0CFCF92B5
:10251000DF92EF92FF921F93CF93DF931F92CDB77D
:10252000DEB77C01162F0E94310CCE0101960E946D
:1025300066126C018981811130C0111103C0CE1463
:10254000DF0408F5112341F0E0914B02F0914C02B9
:10255000808111E0811110E0B7016C197D09412FD4
:102560008091490290914A020E9436090E94600DB2
:10257000882381F00F90DF91CF911F91FF90EF9012
:10258000DF90CF9008950E94600DB601C7010E94B0
:102590001D12F0CF0E94E204EDCF0E94600DEACF41
:1025A000EF92FF920F931F93CF93DF9300D000D051
:1025B00000D0CDB7DEB785E0FE013196DF011D9278
:1025C0008A95E9F750E040E0BE016F5F7F4F809150
:1025D000490290914A020E94E207882309F47BC0D5
:1025E000898188237CF30C811D81F8018285938584
:1025F000892B21F0C80102960E94AA04CE010696FA
:102600000E9466127C01E981E150E930D8F60E2E75
:10261000000CFF0BE25FFC4E0C94DF151713171331
:1026200045134A1360131713171345134A13D801A0
:1026300052968C915297816052968C9352972A8130
:102640003B811C966D917C91620F731FA701C8019D
:102650000E94CA11882309F4B5CFF801828982FD4E
:1026600009C08E7F828BD8015096ED91FC91C801F4
:102670000995A8CF6A817B8184859585680F791F2C
:10268000A701C8010E94F911EECFF80182898E7F5F
:10269000828B98CFD80152968C9152978160529636
:1026A0008C9352976A817B811D967C936E931C97C5
:1026B0006E0D7F1D9701A701C8010E94CA1182CF2C
:1026C000F801828981FF03C08E7F828B7BCFC80196
:1026D0000E94590477CF26960FB6F894DEBF0FBE3E
:1026E000CDBFDF91CF911F910F91FF90EF90089593
:1026F000CF93DF931F92CDB7DEB7CE0101960E9434
:10270000B51169810E9487120E94D012F6CF0FB6D0
:10271000F8940F928091490290914A02892B19F006
:102720000F900FBE089588E592E00E9468048FE440
:1027300092E00E94680488E592E090934E028093B4
:102740004D028FE492E090934C0280934B0240E064
:1027500065E08AE00E94160790934A02809349023E
:10276000DFCFEF92FF920F930E948713809149026F
:1027700090914A02892BA9F00F2EF7E4EF2EF2E098
:10278000FF2EF02D03E030E020E04CE550E061E268
:1027900071E088E793E10E94B80B0F91FF90EF90F2
:1027A000089580E0FACF20910401309105018FEF68
:1027B00098E0821B930B90930101809300010E948B
:1027C00003150E94140C08950E94A81581EE90E054
:1027D000892B11F00E94E100089584B1806284B9D0
:1027E00085B1806285B9089583B1806283B9089507
:1027F0000E94ED132FEF80E792E02150804090403F
:10280000E1F700C000000E94F413F4CF0E94ED1322
:102810002FEF87EA91E6215080409040E1F700C019
:1028200000000E94F413F4CF8C01F82E26C08CE037
:1028300090E00E94410E85B1C095C823C5B9809132
:102840006B0290E0019665E070E00E94A91580930C
:102850006B02E0916B02F0E0EE5CFE4FE081F0E095
:10286000EE0FFF1FE459FD4F20E050E040E070E024
:1028700060E0808191810E9448076801DD24F601B3
:10288000EE0FFF1FE459FD4F6FEF7FEF80819181C5
:102890000E94770885B1C1E0D0E002C0CC0FDD1FF7
:1028A000CA94E2F78C2B85B90E94370C6C010E9408
:1028B000E4034B015C0164EE70E088E391E00E9468
:1028C000B4024AE050E06F2D88E391E00E946B0370
:1028D0006CED70E088E391E00E94B402A60170E024
:1028E00060E02AE030E088E391E00E945C0366ED5E
:1028F00070E088E391E00E94B402809169029091B7
:102900006A02A601481B590B70E060E02AE030E043
:1029100088E391E00E945C036DEC70E088E391E055
:102920000E94B4028091650290916602A0916702B4
:10293000B0916802B501A401481B590B6A0B7B0BCF
:102940002AE030E088E391E00E945C036AEC70E0EA
:1029500088E391E00E94B40288E391E00E94E202E1
:10296000D0926A02C09269028092650290926602D9
:10297000A0926702B092680280916B02843009F0E5
:1029800056CF60EC70E088E391E00E94B402809141
:10299000610290916202A0916302B0916402A5016C
:1029A0009401281B390B4A0B5B0BCA01B90128EEB5
:1029B00033E040E050E00E94BD15BA01A9012AE0D1
:1029C00030E088E391E00E945C0366EB70E088E30E
:1029D00091E00E94B40290E080E00E9438104AE04A
:1029E00050E0BC0188E391E00E94730388E391E02A
:1029F0000E94E2028092610290926202A0926302BF
:102A0000B092640214CFEF92FF920F931F93CF9373
:102A100026E040E855E260E070E088E391E00E9443
:102A2000800184B18E6084B985B1817F85B96AE9FE
:102A300070E088E391E00E94B40263E488E391E0EF
:102A40000E94DA0261E970E088E391E00E94B4023A
:102A50002AE030E040E150E060E070E088E391E09F
:102A60000E945C036BE870E088E391E00E94EE0254
:102A7000C1E0C430C8F40C2F10E043E060E081E016
:102A80000E941607F801EE0FFF1FE459FD4F9183D6
:102A90008083892B11F0CF5FECCF68E670E088E38C
:102AA00091E00E94EE02FFCFF12CE12C01E021E049
:102AB00030E040EC50E069E271E084E194E10E9492
:102AC000B80B22E030E040EC50E06CE271E084E1D1
:102AD00094E10E94B80B23E030E040EC50E06FE25C
:102AE00071E084E194E10E94B80B10926B020E94A5
:102AF000370C90936A02809369020E94E40360930A
:102B000065027093660280936702909368028091D9
:102B1000650290916602A0916702B091680280936D
:102B2000610290936202A0936302B093640220E07A
:102B300050E040E070E060E080917202909173029A
:102B40000E944807CF911F910F91FF90EF90089539
:102B5000089597FB072E16F4009407D077FD09D04F
:102B60000E94E51507FC05D03EF4909581959F4F96
:102B70000895709561957F4F0895A1E21A2EAA1BC2
:102B8000BB1BFD010DC0AA1FBB1FEE1FFF1FA2171D
:102B9000B307E407F50720F0A21BB30BE40BF50B1A
:102BA000661F771F881F991F1A9469F760957095A3
:102BB000809590959B01AC01BD01CF010895EE0F6A
:102BC000FF1F0590F491E02D0994AA1BBB1B51E156
:102BD00007C0AA1FBB1FA617B70710F0A61BB70B8D
:102BE000881F991F5A95A9F780959095BC01CD0132
:102BF00008950F931F93CF93DF938230910510F4C4
:102C000082E090E0E0917602F091770230E020E0FF
:102C1000B0E0A0E0309799F42115310509F44AC0DD
:102C2000281B390B24303105D8F58A819B81611529
:102C3000710589F1FB0193838283FE0111C04081FC
:102C400051810281138148175907E0F0481759074D
:102C500099F4109761F012960C93129713961C93A7
:102C60003296CF01DF91CF911F910F91089500937C
:102C7000760210937702F4CF2115310551F04217F7
:102C8000530738F0A901DB019A01BD01DF01F8010A
:102C9000C1CFEF01F9CF9093770280937602CDCF29
:102CA000FE01E20FF31F8193919322503109398382
:102CB0002883D7CF2091740230917502232B41F4E1
:102CC0002091020130910301309375022093740228
:102CD00020910001309101012115310541F42DB7FA
:102CE0003EB74091040150910501241B350BE09142
:102CF0007402F0917502E217F307A0F42E1B3F0B4C
:102D00002817390778F0AC014E5F5F4F241735075D
:102D100048F04E0F5F1F50937502409374028193E9
:102D200091939FCFF0E0E0E09CCFCF93DF930097AB
:102D3000E9F0FC01329713821282A0917602B091E1
:102D40007702ED0130E020E01097A1F4208131817D
:102D5000820F931F20917402309175022817390752
:102D600009F061C0F0937502E0937402DF91CF9196
:102D70000895EA01CE17DF07E8F54A815B819E01DD
:102D800041155105B1F7E901FB83EA834991599156
:102D9000C40FD51FEC17FD0761F480819181029665
:102DA000840F951FE90199838883828193819B8396
:102DB0008A83F0E0E0E012968D919C911397009742
:102DC000B9F52D913C911197CD010296820F931F79
:102DD00020917402309175022817390739F630971F
:102DE00051F51092770210927602B0937502A0937B
:102DF0007402BCCFD383C28340815181840F951F5D
:102E0000C817D90761F44E5F5F4F88819981480FD9
:102E1000591F518340838A819B819383828321152B
:102E2000310509F0B0CFF0937702E09376029ECFA0
:102E3000FD01DC01C0CF13821282D7CFFB01DC0180
:102E400002C001900D9241505040D8F70895DC0126
:102E500001C06D9341505040E0F70895F894FFCFC2
:102E6000000078022000030000000036018402D038
:102E7000001301A100BC00AE000D0A0049444C45FE
:102E800000546D7220537663005431005432005464
:082E90003300030303010200FB
:00000001FF
