:100000000C9435000C945D000C945D000C945D0024
:100010000C945D000C945D000C947C0C0C945D00C1
:100020000C945D000C945D000C945D000C945D00DC
:100030000C945D000C945D000C945D000C945D00CC
:100040000C94D9010C945D000C9449020C94230289
:100050000C945D000C945D000C945D000C945D00AC
:100060000C945D000C945D00BE0D11241FBECFEFFB
:10007000D8E0DEBFCDBF11E0A0E0B1E0E0E5FEE1F9
:1000800002C005900D92A834B107D9F722E0A8E488
:10009000B1E001C01D92A737B207E1F710E0C5E358
:1000A000D0E004C02197FE010E94100FC433D10795
:1000B000C9F70E947F0C0C94260F0C940000AF929D
:1000C000BF92CF92DF92EF92FF920F931F93CF9345
:1000D000DF936C017B018B01040F151FEB015E01A7
:1000E000AE18BF08C017D10759F06991D601ED913C
:1000F000FC910190F081E02DC6010995892B79F7DB
:10010000C501DF91CF911F910F91FF90EF90DF908C
:10011000CF90BF90AF900895FC01538D448D252F53
:1001200030E0842F90E0821B930B541710F0CF9691
:10013000089501970895FC01918D828D981761F0C3
:10014000A28DAE0FBF2FB11D5D968C91928D9F5FDA
:100150009F73928F90E008958FEF9FEF0895FC01B9
:10016000918D828D981731F0828DE80FF11D858D6C
:1001700090E008958FEF9FEF0895FC01918D228DFF
:10018000892F90E0805C9F4F821B91098F73992784
:1001900008958CEA91E00E94BD0021E0892B09F4CA
:1001A00020E0822F08950E94C90081110C94000064
:1001B000089580E090E0892B11F00C94D30008950D
:1001C000FC01A48DA80FB92FB11DA35ABF4F2C91CC
:1001D000848D90E001968F739927848FA689B789C3
:1001E0002C93A089B1898C91837080648C93938DBA
:1001F000848D981306C00288F389E02D80818F7D5D
:1002000080830895EF92FF920F931F93CF93DF9314
:10021000EC0181E0888F9B8D8C8D98131AC0E88942
:10022000F989808185FF15C09FB7F894EE89FF8911
:100230006083E889F98980818370806480839FBFAF
:1002400081E090E0DF91CF911F910F91FF90EF90AF
:100250000895F62E0B8D10E00F5F1F4F0F731127BF
:10026000E02E8C8D8E110CC00FB607FCFACFE889FA
:10027000F989808185FFF5CFCE010E94E000F1CFA2
:10028000EB8DEC0FFD2FF11DE35AFF4FF0829FB76E
:10029000F8940B8FEA89FB8980818062CFCFCF935E
:1002A000DF93EC01888D8823B9F0AA89BB89E8899E
:1002B000F9898C9185FD03C0808186FD0DC00FB644
:1002C00007FCF7CF8C9185FFF2CF808185FFEDCFC2
:1002D000CE010E94E000E9CFDF91CF910895EF9227
:1002E000FF920F93ECEAF1E0A089B18982E08C9350
:1002F000A485B5851C92A685B7858FEC8C93108E4E
:10030000A489B58986E08C93A289B3898C91806198
:100310008C93A289B3898C9188608C93A289B389CC
:100320008C9180688C930288F389E02D80818F7D89
:100330008083F12CE12C03E027E131E040E850E03C
:1003400061E371E080EC91E00E944F0B02E02FE04E
:1003500031E040E850E063E371E080EC91E00E941E
:100360004F0B01E027E031E040E850E065E371E049
:1003700080EC91E00E944F0B0F91FF90EF90089559
:10038000EC01209769F0FE0101900020E9F7319718
:10039000AF014C1B5D0BBE018CEA91E00E945F0037
:1003A00042E050E067E371E08CEA91E00E945F0078
:1003B000E8CF1F920F920FB60F9211242F933F9305
:1003C0008F939F93AF93BF9380916F029091700230
:1003D000A0917102B091720230916E0223E0230F5E
:1003E0002D3758F50196A11DB11D20936E02809303
:1003F0006F0290937002A0937102B0937202809189
:100400006A0290916B02A0916C02B0916D0201960C
:10041000A11DB11D80936A0290936B02A0936C02A0
:10042000B0936D02BF91AF919F918F913F912F91AA
:100430000F900FBE0F901F90189526E8230F02967D
:10044000A11DB11DD2CF1F920F920FB60F92112492
:100450002F933F934F935F936F937F938F939F93CC
:10046000AF93BF93EF93FF938CEA91E00E94E0007B
:10047000FF91EF91BF91AF919F918F917F916F917C
:100480005F914F913F912F910F900FBE0F901F9052
:1004900018951F920F920FB60F9211242F938F93DE
:1004A0009F93EF93FF93E091BC01F091BD01808198
:1004B000E091C201F091C30182FD1BC09081809147
:1004C000C5018F5F8F732091C601821741F0E091C3
:1004D000C501F0E0E455FE4F958F8093C501FF9173
:1004E000EF919F918F912F910F900FBE0F901F90C2
:1004F00018958081F4CFE091A501F091A60180814B
:10050000811107C08FEF9FEF90936902809368027B
:100510000895E091A501F091A6010580F681E02DF6
:1005200080819181F1CFCF93DF93DC011596ED911E
:10053000FC910680F781E02DA489B5898685978591
:1005400020893189EC013D832C83C089D1899B832B
:100550008A83CF010C9611962D913C911297281702
:10056000390721F41296DC93CE931197158A148AD9
:100570002C9121502C9320916A01211157C0A28502
:10058000B3858481958126813781EC013D832C835D
:10059000C681D7819B838A83CF01029611962D91C4
:1005A0003C9112972817390721F41296DC93CE93C9
:1005B0001197138612862C9121502C93C689209175
:1005C00069012C1710F4C093690129E02C9FE00108
:1005D0001124CA58DE4F0980DA81C02DD583C48327
:1005E0004C815D8157834683AC81BD8113969C937A
:1005F0008E9312979D838C83A689A29FD00111248C
:10060000AA58BE4FB387A2878C918F5F8C93A0911D
:10061000A901B091AA01968956968C91891730F557
:1006200081E080935F01DF91CF910895A0916101F6
:10063000B0916201B787A68714962D913C911597CA
:10064000318B208B1496CD91DC9115979B838A83F7
:1006500015969C938E93149780E691E0958B848BEE
:10066000809160018F5F80936001D1CF80E0DBCF0C
:100670000FB6F8940F9280916502909166020F90E8
:100680000FBE089580916A018F5F80936A0108957B
:100690000FB6F8940F92FC01928D0F900FBE81E07F
:1006A000911180E00895EF92FF920F931F93CF93E3
:1006B000DF93EC010FB6F8940F921E8D7C0181E15F
:1006C000E80EF11C01E01116D4F08FEF8E8F0F9021
:1006D0000FBE0FB6F8940F921D8D7E0188E0E80ED4
:1006E000F11C01E01116B4F08FEF8D8F0F900FBE4B
:1006F000DF91CF911F910F91FF90EF90089589891D
:10070000882319F3C7010E949302811100935F01AE
:100710001150D9CF8885882339F3C7010E949302ED
:10072000811100935F011150DDCFCF93DF93FC0166
:10073000A085B1858281938124813581EC013D833F
:100740002C83C481D5819B838A8311968D919C9142
:1007500012978E179F0721F41296DC93CE93119770
:10076000118610868C9181508C93DF91CF910895E2
:100770000F931F93CF93DF938C01FB0180819181B5
:10078000D80113968F3F9807F1F4E801AF81B8853F
:1007900012968D919C91139793838283EC01FD8334
:1007A000EC83B583A4831396FC93EE931297118781
:1007B0000087F80180818F5F8083DF91CF911F9147
:1007C0000F910895D90112962D913C911397E9014B
:1007D0004881598184179507A8F7DACFFC01738304
:1007E0006283918780874617570790F0421B530B0F
:1007F0008485958548175907C8F4BF016E5F7F4F00
:1008000080914B0290914C020E94B80380E00895C1
:100810004217530718F46217730740F4BF016E5F65
:100820007F4F80914D0290914E02EECF81E008956E
:10083000EF92FF920F931F93CF93DF93EC018B0105
:100840007A016C857D85600F711F9801A701CE012B
:100850000E94EE03811107C0DF91CF911F910F918C
:10086000FF90EF9008958C859D85080F191FE889EA
:10087000F989CE010995E5CFEF92FF920F931F936F
:10088000CF93DF938C017B01E0914D02F0914E02FA
:100890000580F681E02DC681D781CE0102960E94A7
:1008A00095038A8982FF0FC0A701B801CE010E947B
:1008B0001804E889F989CE01DF91CF911F910F913A
:1008C000FF90EF9009948E7F8A8BF3CFE0914D02D9
:1008D000F0914E02808181110DC080914B02909168
:1008E0004C0290934E0280934D02F0934C02E093A1
:1008F0004B0208950580F681E02D6FEF7FEF808138
:1009000091810E943C04E2CFBF92CF92DF92EF929E
:10091000FF920F931F93CF93DF93EC01B62EC090FD
:100920006502D09066020091A5011091A601E090A9
:10093000A301F090A4018091A9019091AA010296CF
:100940000E949503CF3FDC0709F042C0BB2009F4A9
:100950003FC0E0919B01F0919C01A091A901B09151
:10096000AA011596FC93EE931497A091A901B0915A
:10097000AA018481958117969C938E9316978091F6
:10098000A9019091AA01A481B581029613969C9326
:100990008E9312978091A9019091AA010296958356
:1009A0008483E091A901F091AA018AE991E09387FB
:1009B000828780919A018F5F80939A01DF91CF9116
:1009C0001F910F91FF90EF90DF90CF90BF9008950F
:1009D000CC0DDD1DE091A901F091AA01D383C28362
:1009E0006091A9017091AA016E5F7F4FCC15DD0562
:1009F00060F4C701DF91CF911F910F91FF90EF90AD
:100A0000DF90CF90BF900C94B803C8010E94B80348
:100A10008091680290916902C817D90778F6D0933F
:100A20006902C0936802CACFFC0103969283818356
:100A30002FEF3FEF348323839683858390878783CB
:100A4000108208950F920FB6F8940F921F921124FE
:100A50002F923F924F925F926F927F928F929F92CE
:100A6000AF92BF92CF92DF92EF92FF920F931F93BC
:100A70002F933F934F935F936F937F938F939F93A6
:100A8000AF93BF93CF93DF93EF93FF93A091A9010F
:100A9000B091AA010DB60D920EB60D9280916A0129
:100AA000882321F081E080935F0161C010925F0193
:100AB000A091A901B091AA01E091A901F091AA0128
:100AC0002D913C918789908D82179307A8F0809192
:100AD000A9019091AA018091A9019091AA01259A5A
:100AE0002D9A2FEF87EA91E6215080409040E1F760
:100AF00000C000001D9AF5CF2091690189E001C076
:100B00002150422F50E0849FF001859FF00D112469
:100B1000EA58FE4F9081992399F3A181B2811296F0
:100B20006D917C9172836183289FC0011124875845
:100B30009E4F6817790721F485819681928381837E
:100B400089E0849FF001859FF00D1124EA58FE4F43
:100B50000180F281E02D868197819093AA01809394
:100B6000A901209369018091A9019091AA01A09106
:100B7000A901B091AA01CD91CDBFDD91DEBFFF915A
:100B8000EF91DF91CF91BF91AF919F918F917F9125
:100B90006F915F914F913F912F911F910F91FF9016
:100BA000EF90DF90CF90BF90AF909F908F907F900D
:100BB0006F905F904F903F902F901F900F900FBEBF
:100BC0000F9008958F929F92BF92CF92DF92EF92F3
:100BD000FF920F931F93CF93DF930FB6F8940F926A
:100BE00080916A01815080936A0180916A01882313
:100BF00079F080E00F900FBEDF91CF911F910F91A0
:100C0000FF90EF90DF90CF90BF909F908F900895CE
:100C100080916C01882369F3E0906501F090660192
:100C2000F0E0E0E039E041E08091600181115EC0D8
:100C3000EF2B11F00E947B02E0905D01F0905E01CD
:100C4000E114F10409F47DC189E0D82ECC24C394C9
:100C50000FEF1FEF80916A01811161C1C0916502A0
:100C6000D09166024E018FEF881A980A9092660220
:100C70008092650281149104B9F48091A50190914C
:100C8000A6012091A3013091A4013093A6012093E5
:100C9000A5019093A4018093A3018091AB018F5F84
:100CA0008093AB010E947B0280916802909169025F
:100CB000B12C8816990608F026C1E091A901F0919F
:100CC000AA01E689DE9EF0011124EA58FE4F8081D8
:100CD000823010F0BB24B39480915F01811103C076
:100CE000BB2009F425C1C0925F0122C1D70116962D
:100CF000ED91FC91A489B589668577858089918974
:100D0000EB019D838C8380899189EC017B836A83CD
:100D1000BF01645F7F4F11960D911C9112970617CA
:100D2000170721F412969C938E931197158A148AB3
:100D30008C9181508C93A285B38584819581668145
:100D40007781EC017D836C8366817781EB019B83E6
:100D50008A83CF01029611960D911C911297081764
:100D6000190721F412967C936E93119713861286BD
:100D70002C9121502C93A689209169012A1710F4F7
:100D8000A09369013A9FD0011124AA58BE4F119631
:100D90000D90BC91A02DB583A48314966D917C9188
:100DA00015977783668314966D917C911597EB0167
:100DB0009B838A8315969C938E9314979689939F11
:100DC000D0011124AA58BE4FB387A2878C918F5FA0
:100DD0008C93A091A901B091AA0156968C91891784
:100DE00008F022CF40935F011FCFE091A501F09161
:100DF000A6010580F681E02D0680F781E02D828135
:100E000093818816990628F490936902809368026A
:100E100054CFC285D3858481958126813781DC01B9
:100E200015963C932E93149726813781D9011396FA
:100E30009C938E931297CF01029649815A8148174D
:100E4000590711F43A832983138612862881215089
:100E50002883A489B5891097F9F0268537854089BC
:100E60005189E9015D834C8340895189EA013B83C3
:100E70002A8311966D917C9112979F01245F3F4FB9
:100E80006217730721F412965C934E931197158A9B
:100E9000148A2C9121502C93A689209169012A173C
:100EA00010F4A0936901DA9ED0011124AA58BE4F14
:100EB00011960D90BC91A02DB583A48314962D910D
:100EC0003C9115973783268314962D913C91159765
:100ED000E9019B838A8315969C938E931497968938
:100EE0009D9DD0011124AA58BE4FB387A2878C9133
:100EF0008F5F8C93E091A901F091AA0186898917EF
:100F000010F4BB24B394E091A501F091A601808177
:100F100081116BCF1093690200936802CECE80914D
:100F20005D0190915E01019690935E0180935D0159
:100F3000D1E0ED1AF10809F08DCE10925E01109209
:100F40005D0180915F01882309F453CE8091A9014E
:100F50009091AA010E94220581E04CCE0F920FB61B
:100F6000F8940F921F9211242F923F924F925F920A
:100F70006F927F928F929F92AF92BF92CF92DF92A9
:100F8000EF92FF920F931F932F933F934F935F9393
:100F90006F937F938F939F93AF93BF93CF93DF9381
:100FA000EF93FF93A091A901B091AA010DB60D9204
:100FB0000EB60D9213BE80916A018111F9C0809125
:100FC0006502909166020196909366028093650295
:100FD000009781F52091A5013091A6014091A301D0
:100FE0005091A4015093A6014093A5013093A40110
:100FF0002093A3012091AB012F5F2093AB01E091DF
:10100000A501F091A6012081211107C02FEF3FEF2C
:1010100030936902209368020DC0E091A501F09120
:10102000A6010580F681E02D20813181309369028F
:101030002093680220916802309169028217930719
:1010400010F420E0A1C020E039E0D32EE091A5010A
:10105000F091A6013081311107C08FEF9FEF90937F
:1010600069028093680290C0E091A501F091A60109
:101070000580F681E02D0680F781E02D42815381C5
:101080008417950728F450936902409368027CC046
:10109000A285B3854481558166817781EA017D838C
:1010A0006C8366817781EB015B834A83AF014E5F7E
:1010B0005F4F11960D911C9112970417150721F49B
:1010C00012967C936E931197138612863C91315041
:1010D0003C93A489B5891097F9F0668577850089D6
:1010E0001189EB011D830C8300891189E8017B8341
:1010F0006A831196ED90FC901297BF01645F7F4F59
:10110000E616F70621F412961C930E931197158A92
:10111000148A3C9131503C93A689309169013A1769
:1011200010F4A0936901DA9ED0011124AA58BE4F91
:1011300011960D90BC91A02DB583A48314966D914A
:101140007C9115977783668314966D917C911597A2
:10115000EB015B834A8315965C934E931497468903
:101160004D9DD0011124AA58BE4FB387A2873C9150
:101170003F5F3C93E091A901F091AA0136893417B1
:1011800008F064CF21E062CFE091A901F091AA01BB
:10119000E689D9E0ED9FF0011124EA58FE4F8081E5
:1011A000823008F021E080915F0181110EC00AC0F9
:1011B00080915D0190915E01019690935E01809314
:1011C0005D016CC0222309F469C080916A01882303
:1011D00021F081E080935F0161C010925F01A091D6
:1011E000A901B091AA01E091A901F091AA012D9164
:1011F0003C918789908D82179307A8F08091A9016F
:101200009091AA018091A9019091AA01259A2D9A05
:101210002FEF87EA91E6215080409040E1F700C02F
:1012200000001D9AF5CF2091690189E001C021508D
:10123000422F50E0849FF001859FF00D1124EA5861
:10124000FE4F9081992399F3A181B28112966D91FD
:101250007C9172836183289FC001112487589E4F1F
:101260006817790721F4858196819283818389E0CB
:10127000849FF001859FF00D1124EA58FE4F0180F4
:10128000F281E02D868197819093AA018093A90134
:10129000209369018091A9019091AA01A091A901CF
:1012A000B091AA01CD91CDBFDD91DEBFFF91EF914D
:1012B000DF91CF91BF91AF919F918F917F916F916E
:1012C0005F914F913F912F911F910F91FF90EF9060
:1012D000DF90CF90BF90AF909F908F907F906F9056
:1012E0005F904F903F902F901F900F900FBE0F90E8
:1012F0000895CF93DF93009751F0EC010E944203D1
:10130000CE010E94870EDF91CF910C94E205DF9110
:10131000CF910895CF93DF9300D000D01F92CDB727
:10132000DEB785E0B82ECE0101967C01E0914D023A
:10133000F0914E021081D12CC12C112329F005808F
:10134000F681E02DC080D1800E9442030E943803C4
:101350004C018091A7019091A8018816990608F088
:1013600089C00E9466049092A8018092A7010E9401
:10137000E205D701EB2D1D92EA95E9F70091630292
:10138000109164020FB6F8940F92D8015A96DC902F
:101390005A97DD2009F42FC15C964C915C97442349
:1013A000F9F050E016968D919C911797840F951F38
:1013B00017969C938E93169714962D913C911597A2
:1013C0008217930738F08D919C91119717969C93F3
:1013D0008E931697F80166817781C7010E94160FD8
:1013E000DA94D8015A96DC925A9718968C918823F1
:1013F00039F0C80108960E94930281110E942205CB
:101400000F900FBEA980A7FCB9CF0C811D81D80118
:101410001A968D919C91892B21F0C80102960E9409
:1014200095030E9438036C018091A7019091A80157
:10143000C816D90610F40E946604D092A801C09282
:10144000A701EFEFEA0DE93008F098CF0E2E000C5F
:10145000FF0BEF5CF54FD80152968C9152970C948C
:10146000100FB40AB40AF70ADF0AF10AB40AB40A80
:10147000F70ADF0A9092A8018092A701112351F088
:101480008C149D0470F00E94E205B401C6010E9414
:101490003C046FCFE0914B02F0914C0261E08081FF
:1014A000811160E000916302109164020FB6F8941C
:1014B0000F92D8015D968C915D978F3F11F45D96E8
:1014C0001C92F801868D8F3F09F4168E0F900FBE87
:1014D000D8015A968C915A9781113CC05296ED9141
:1014E000FC91A091A901B091AA011F96FC93EE93E3
:1014F0001E97A091A901B091AA018481958151966E
:101500009C938E9350978091A9019091AA01A481F8
:10151000B5810C9613969C938E9312978091A90196
:101520009091AA010C9695838483E091A901F09192
:10153000AA01C8014196958B848BF80181898F5F40
:10154000818BC60188199909662311F08FEF9FEFEF
:101550000E948404C8010E9453030E94E205811185
:1015600008CF0E94220505CF8160F801828B8A8016
:101570009B8064857585680D791D9401A601C8015D
:101580000E94EE03882309F4F9CED80152968C917B
:10159000529782FF10C01C966D917C91680D791D49
:1015A000A601C8010E941804D8015096ED91FC9143
:1015B000C8010995E3CE8E7FF801828BF5CF81605B
:1015C00052968C9352976A817B811D967C936E9381
:1015D0001C976C0D7D1D9601A601C8010E94EE03AB
:1015E000CDCE81FD04C0C8010E947909C7CE8E7F8F
:1015F000F801828BC3CE0F900FBE98CE00E010E0B2
:1016000080916B0181110CC080917601823010F0C5
:101610000E9422050115110599F30E94D300F0CF15
:101620000FB6F8940F92E0917201F0917301C681A8
:10163000D781CE0102960E94950380916C01815062
:1016400080936C0180916B01815080936B010F90AE
:101650000FBE8F89988D0E947909CE010E94790969
:10166000CFCFCF93DF93EC010E944203CE010E94C3
:10167000EB0DEC010E94E205209769F4259A2D9A62
:101680002FEF80E792E0215080409040E1F700C0CA
:1016900000001D9AF5CFCE01DF91CF9108955F92A2
:1016A0006F927F928F929F92AF92BF92CF92DF9272
:1016B000EF92FF920F931F93CF93DF93782E892E93
:1016C000562E672E6A01922E132FCA010E94310BEB
:1016D0005C01892B09F4EDC080E390E00E94310B9E
:1016E000EC01892B09F4E2C080E3DE011D928A95AA
:1016F000E9F7B88EAF8AA60165EA70E0C5010E94DD
:101700001F0FB1E0CB1AD108EF89F88DEC0DFD1D4C
:10171000652D762DCE0149969B01205F3F4FDB0161
:101720004D91BD01DC014D93CD01AB0141505109FB
:10173000DA014C91442319F02617370781F718A6D0
:101740000E8B09A71B861A861D8A1C8AD987C88713
:1017500084E090E0801B91099D878C87DB8BCA8B8E
:101760007082DF0111978C9211971C92119780E87B
:101770008C9311971C9257979C9211971C93B39737
:10178000F983E883E114F10419F0F701D183C083F0
:101790000FB6F8940F9280916C018F5F80936C016B
:1017A0008091A9019091AA01892B09F093C0D0934F
:1017B000AA01C093A90180916C01813081F586E76F
:1017C00091E00E9414058FE791E00E94140588E8DB
:1017D00091E00E94140581E991E00E94140583E5DF
:1017E00091E00E9414058AE491E00E94140580E6CD
:1017F00091E00E9414058DE691E00E9414058AE9AB
:1018000091E00E94140583E591E09093A6018093F6
:10181000A5018AE491E09093A4018093A3018091B3
:101820005C018F5F80935C01AE89809169018A17AA
:1018300010F4A093690129E02A9FD0011124AA582D
:10184000BE4F11960D90BC91A02DBD83AC83149614
:101850008D919C9115979F838E831496ED91FC91A9
:101860001597CE0102969383828315969C938E934F
:101870001497EE89E29FF0011124EA58FE4FFB878E
:10188000EA8780818F5F80830F900FBE809167020F
:10189000882351F0E091A901F091AA0196898E89DF
:1018A000981710F40E94220581E004C0C5010E942F
:1018B00079098FEFDF91CF911F910F91FF90EF90FA
:1018C000DF90CF90BF90AF909F908F907F906F9060
:1018D0005F900895809167028111A1CFE091A901E5
:1018E000F091AA0196898E89891708F498CFD09330
:1018F000AA01C093A90193CF0E94AE071895CF9378
:10190000DF93CDB7DEB760970FB6F894DEBF0FBE9A
:10191000CDBF789484B5826084BD84B5816084BD78
:1019200085B5826085BD85B5816085BD80916E007D
:10193000816080936E0010928100809181008260AE
:1019400080938100809181008160809381008091EB
:1019500080008160809380008091B10084608093DA
:10196000B1008091B00081608093B00080917A00D6
:10197000846080937A0080917A00826080937A00FC
:1019800080917A00816080937A0080917A008068EB
:1019900080937A001092C1002091050130910601D8
:1019A0008FEF98E0821B930B9093020180930101CB
:1019B0000E946F01AAE3B1E0FE013196BF018D9153
:1019C0008193882321F081E0AA34B807C1F789E424
:1019D000E82E82E0F82E00E030E020E040EC50E01D
:1019E0008EEF9AE00E944F0B882309F4BBC0813030
:1019F00009F0B8C00FB6F8940F92809163029091ED
:101A00006402892B09F050C088E592E00E94140519
:101A10008FE492E00E94140588E592E090934E02D4
:101A200080934D028FE492E090934C0280934B029E
:101A300081E590E00E94310B8C01009789F14F966F
:101A4000F801918380838AE0838F85E0848F0FB6CD
:101A5000F8940F9280819181238D448DBC01249F45
:101A6000600D711D112475836483128E93838283AC
:101A70002150330B429FB001439F700D1124860FFC
:101A8000971F978386838FEF858F868FC80108966F
:101A90000E941405C80141960E9414050F900FBEC4
:101AA00010936402009363020F900FBE8091630253
:101AB00090916402892B09F455C091E6E92E92E0D9
:101AC000F92E03E030E020E04CE550E06FE371E0F8
:101AD0008AE899E00E944F0B813009F043C0F894E6
:101AE0002FEF3FEF309369022093680280936702E3
:101AF0001092660210926502A89588E190EC0FB6EC
:101B0000F894A895809360000FBE90936000A09118
:101B1000A901B091AA01CD91CDBFDD91DEBFFF91AA
:101B2000EF91DF91CF91BF91AF919F918F917F9175
:101B30006F915F914F913F912F911F910F91FF9066
:101B4000EF90DF90CF90BF90AF909F908F907F905D
:101B50006F905F904F903F902F901F900F900FBE0F
:101B60000F900895809100010E946F0100E010E045
:101B700001151105E9F30E94D300FACFECEAF1E078
:101B80001382128288EE93E0A0E0B0E08483958314
:101B9000A683B78383E291E09183808385EC90E014
:101BA0009587848784EC90E09787868780EC90E027
:101BB000918B808B81EC90E0938B828B82EC90E018
:101BC000958B848B86EC90E0978B868B118E128E92
:101BD000138E148E08950F931F93CF93DF9382304B
:101BE000910510F482E090E0E0917502F0917602A8
:101BF00030E020E0B0E0A0E0309799F42115310505
:101C000009F44AC0281B390B24303105D8F58A81E4
:101C10009B816115710589F1FB0193838283FE012C
:101C200011C0408151810281138148175907E0F0AA
:101C30004817590799F4109761F012960C93129770
:101C400013961C933296CF01DF91CF911F910F9184
:101C500008950093750210937602F4CF2115310593
:101C600051F04217530738F0A901DB019A01BD0179
:101C7000DF01F801C1CFEF01F9CF90937602809395
:101C80007502CDCFFE01E20FF31F81939193225095
:101C9000310939832883D7CF2091730230917402A0
:101CA000232B41F4209103013091040130937402FD
:101CB0002093730220910101309102012115310519
:101CC00041F42DB73EB74091050150910601241B08
:101CD000350BE0917302F0917402E217F307A0F460
:101CE0002E1B3F0B2817390778F0AC014E5F5F4F72
:101CF0002417350748F04E0F5F1F5093740240932E
:101D00007302819391939FCFF0E0E0E09CCFCF935B
:101D1000DF930097E9F0FC01329713821282A091C1
:101D20007502B0917602ED0130E020E01097A1F449
:101D300020813181820F931F2091730230917402B0
:101D40002817390709F061C0F0937402E093730219
:101D5000DF91CF910895EA01CE17DF07E8F54A81B8
:101D60005B819E0141155105B1F7E901FB83EA83CF
:101D700049915991C40FD51FEC17FD0761F480817B
:101D800091810296840F951FE9019983888382814E
:101D900093819B838A83F0E0E0E012968D919C9181
:101DA00013970097B9F52D913C911197CD010296AB
:101DB000820F931F20917302309174022817390704
:101DC00039F6309751F51092760210927502B09361
:101DD0007402A0937302BCCFD383C283408151812C
:101DE000840F951FC817D90761F44E5F5F4F888134
:101DF0009981480F591F518340838A819B81938326
:101E000082832115310509F0B0CFF0937602E0937B
:101E100075029ECFFD01DC01C0CF13821282D7CFA5
:101E2000EE0FFF1F0590F491E02D0994FB01DC01FA
:101E300002C001900D9241505040D8F70895DC0146
:101E400001C06D9341505040E0F70895F894FFCFE2
:101E50000300007702800054617265615F430054A3
:101E6000617265615F420054617265615F410000AB
:101E700000000002015F008C004F01BD009B00AF1D
:101E8000004100420043000D0A0049444C45005403
:081E90006D722053766300001F
:00000001FF
