S01700004763634170706C69636174696F6E312E737265635B
S11300000C9434000C9446000C9446000C94460066
S11300100C9446000C9446000C9446000C94460044
S11300200C9446000C9446000C9446000C94460034
S11300300C9446000C9446000C9461000C94460009
S11300400C9446000C9446000C9446000C94460014
S11300500C9446000C9446000C9446000C94460004
S11300600C9446000C94460011241FBECFEFD8E038
S1130070DEBFCDBF21E0A0E0B1E001C01D92A430FD
S1130080B207E1F70E949D000C94C6000C94000096
S11300908AB1837F8AB98BB18C608BB984B1836058
S11300A084B985B1836085B9089582E084BD83E015
S11300B085BD89EF87BDEEE6F0E0808182608083B4
S11300C008951F920F920FB60F9211248F939F934E
S11300D080910301813051F58091010190910201D9
S11300E00196909302018093010180910101909106
S11300F002018A3F9105D0F0109202011092010191
S113010080910001882349F085B1816085B985B16A
S11301108D7F85B91092000109C085B18E7F85B9A4
S113012085B1826085B981E0809300019F918F91B0
S11301300F900FBE0F901F9018950E9448000E94C8
S11301405500789430E003C030E001C031E029B1BB
S113015089B1887090E022FF02C0892BA9F7311180
S1130160F6CF809103018111F1CF81E080930301E7
S113017010920201109201018093000185B1816007
S113018085B985B18D7F85B931E0E1CFF894FFCF92
S9030000FC
