:100000000C9434000C9446000C9446000C9446006A
:100010000C9446000C9446000C9446000C94460048
:100020000C9446000C9446000C9446000C94460038
:100030000C9446000C9446000C948E000C944600E0
:100040000C9446000C9446000C9446000C94460018
:100050000C9446000C9446000C9446000C94460008
:100060000C9446000C94460011241FBECFEFD8E03C
:10007000DEBFCDBF21E0A0E0B1E001C01D92A53000
:10008000B207E1F70E9461000C94CD000C940000CF
:1000900082E084BD83E085BD89EF87BDEEE6F0E0B8
:1000A00080818260808308958AB1837F8AB98BB111
:1000B0008C608BB984B1836084B985B1836085B964
:1000C00008950E9454000E944800789420E001C0E6
:1000D00020E099B189B1887092FF02C08111F8CFF8
:1000E0002111F7CF8091030190910401892BA1F494
:1000F00081E090E09093040180930301109202014B
:10010000109201018093000185B1816085B985B1AC
:100110008D7F85B921E0DDCF21E0DBCF1F920F92EB
:100120000FB60F9211248F939F93809103019091AA
:100130000401019739F09F918F910F900FBE0F909E
:100140001F90189580910101909102010196909362
:1001500002018093010180910101909102018A3F87
:10016000910548F310920201109201018091000163
:1001700081110AC085B18E7F85B985B1826085B94C
:1001800081E080930001D7CF85B1816085B985B1C9
:0E0190008D7F85B910920001CECFF894FFCF7D
:00000001FF
