:100000000C9434000C943E000C943E000C943E0082
:100010000C943E000C943E000C943E000C943E0068
:100020000C943E000C943E000C943E000C943E0058
:100030000C943E000C943E000C943E000C943E0048
:100040000C943E000C943E000C943E000C943E0038
:100050000C943E000C943E000C943E000C943E0028
:100060000C943E000C943E0011241FBECFEFD8E04C
:10007000DEBFCDBF0E944A000C9484000C940000A7
:100080008AB1837F8AB984B1836084B98BB18C6073
:100090008BB908950E94400050E040E021E030E03C
:1000A00016C040E024C085B18E7F85B985B18260DD
:1000B00085B951E003C085B18C7F85B96FEF84E3CA
:1000C0009CE0615080409040E1F700C0000099B191
:1000D00089B1887092FF02C08111E3CF411107C03E
:1000E00081E0232B09F080E0282F30E041E021154A
:1000F000310509F75523B9F285B1816085B985B11C
:0C0100008D7F85B950E0DACFF894FFCF76
:00000001FF
