:100000000C9434000C943E000C943E000C943E0082
:100010000C943E000C943E000C943E000C943E0068
:100020000C943E000C943E000C943E000C943E0058
:100030000C943E000C943E000C943E000C943E0048
:100040000C943E000C943E000C943E000C943E0038
:100050000C943E000C943E000C943E000C943E0028
:100060000C943E000C943E0011241FBECFEFD8E04C
:10007000DEBFCDBF0E947C000C9485000C94000074
:100080008FEF84B915B887B1866087B988B1897F49
:1000900088B90895EAE7F0E08081806480838091E8
:1000A0007A0084FFFCCFEAE7F0E080818061808302
:1000B0008091780090917900089580E480937C008D
:1000C00087E880937A0008959F7095B998B19460FD
:1000D00098B99AE19A95F1F700C098B19B7F98B9C9
:1000E00085B988B1826088B98AE18A95F1F700C044
:1000F00088B18D7F88B908950E9440000E945D00FC
:0E0100000E944A000E946400FBCFF894FFCFDB
:00000001FF
